01000000130012E21200007202505120100                         PROFUTURO AFORE SA DE CV                PGA-961220PB4                                                                                                                                                                                           
020000002300100000000001000020250512                        51202505120120300004152313573938227ANABELL VADILLO FLORES                  3300572559000018520210715123815017600000ANABELL VADILLO FLORES                  0000000000000000000001DOMICILIACION                           00                     
020000003300100000000002000020250512                        51202505120120300004152313259276827MA OFELIA RAMOS ALCALA                  3201534492000018320210728165213653600000MA OFELIA RAMOS ALCALA                  0000000000000000000001DOMICILIACION                           00                     
020000004300100000000003000020250512                        51202505120124000012190027188921720SANDRA JANETH VILLEGAS VILLA            3201386789000019120210528135905561300000SANDRA JANETH VILLEGAS VILLA            0000000000000000000001DOMICILIACION                           00                     
020000005300100000000001000020250512                        51202505120120300004152313624018383GUADALUPE ERIKA INIGUEZ                 0520000753000009820210413164138121200000GUADALUPE ERIKA INIGUEZ                 0000000000000000000001DOMICILIACION                           00                     
020000006300100000000001500020250512                        51202505120124000012320028505952413JAVIER RODRIGUEZ GONZALEZ               3201351879000019320210519181422211000000JAVIER RODRIGUEZ GONZALEZ               0000000000000000000001DOMICILIACION                           00                     
020000007300100000000001000020250512                        51202505120120300004152313226859713XITLE ADRIANA ESPINOZA BERNAL           3201156094000019920210516023232099200000XITLE ADRIANA ESPINOZA BERNAL           0000000000000000000001DOMICILIACION                           00                     
020000008300100000000002000020250512                        51202505120120300004152313602667854JUAN FRANCISCO DIMAS MEDINA             3201038376000010720201218141515201000000JUAN FRANCISCO DIMAS MEDINA             0000000000000000000001DOMICILIACION                           00                     
020000009300100000000005000020250512                        51202505120120300004152313226618663NAYEHLY DIAZ MORENO                     2860009874000020820210120194004258400000NAYEHLY DIAZ MORENO                     0000000000000000000001DOMICILIACION                           00                     
020000010300100000000020000020250512                        51202505120124000012580014359653495CARLO EMMANUEL BENITEZ OJEDA            3200940565000010720210112155706297000000CARLO EMMANUEL BENITEZ OJEDA            0000000000000000000001DOMICILIACION                           00                     
020000011300100000000001000020250512                        51202505120124000012180027941838510CARLOS ENRIQUE YHMOFF VAZQUEZ           3200477018000018320210728224320768300000CARLOS ENRIQUE YHMOFF VAZQUEZ           0000000000000000000001DOMICILIACION                           00                     
020000012300100000000002000020250512                        51202505120120300004152313507163405PAOLA ELIZABETH ROJAS VILLAGOMEZ        3201422996000018620210818130547969000000PAOLA ELIZABETH ROJAS VILLAGOMEZ        0000000000000000000001DOMICILIACION                           00                     
020000013300100000000001000020250512                        51202505120124000012580011486280093GLORIA NELLY DEL BOSQUE LOZANO          3201130681000018020210811150100781200000GLORIA NELLY DEL BOSQUE LOZANO          0000000000000000000001DOMICILIACION                           00                     
020000014300100000000001000020250512                        51202505120120300004152313754425267ARGEL AGUILAR CERVANTES                 3201564286000017820210818125312960100000ARGEL AGUILAR CERVANTES                 0000000000000000000001DOMICILIACION                           00                     
020000015300100000000007500020250512                        51202505120124000012180014698602073VIRGILIO GREEN PEREZ                    3200656404000018020210819164234861900000VIRGILIO GREEN PEREZ                    0000000000000000000001DOMICILIACION                           00                     
020000016300100000000001500020250512                        51202505120124000012180015284746753OMAR ALEJANDRO MIGUEL HERNANDEZ         3300583564000018020210812201834757800000OMAR ALEJANDRO MIGUEL HERNANDEZ         0000000000000000000001DOMICILIACION                           00                     
020000017300100000000010000020250512                        51202505120124000012180011093388296GENOVEVA OLGUIN RAMIREZ                 3200340199000009320210625183518675300000GENOVEVA OLGUIN RAMIREZ                 0000000000000000000001DOMICILIACION                           00                     
020000018300100000000015000020250512                        51202505120120300004152313815652032HECTOR BELMONT TAMAYO                   3300324334000018120210812191951741600000HECTOR BELMONT TAMAYO                   0000000000000000000001DOMICILIACION                           00                     
020000019300100000000005000020250512                        51202505120124000012180001981160248EDMUNDO MANUEL ACEVEDO FLORES           1120056349000019620210508102555053900000EDMUNDO MANUEL ACEVEDO FLORES           0000000000000000000001DOMICILIACION                           00                     
020000020300100000000005000020250512                        51202505120120300004152313520920872JESUS ANDRES NOGUEZ SALAS               3300528316000019620210408202600066800000JESUS ANDRES NOGUEZ SALAS               0000000000000000000001DOMICILIACION                           00                     
020000021300100000000200000020250512                        51202505120120300004555103008198874HECTOR GALVAN VENEGAS                   3200223727000009820210413214439219100000HECTOR GALVAN VENEGAS                   0000000000000000000001DOMICILIACION                           00                     
020000022300100000000001000020250512                        51202505120124000012180028900070729RITA HERNANDEZ FIGUEROA                 3300528143000019620210408181312018400000RITA HERNANDEZ FIGUEROA                 0000000000000000000001DOMICILIACION                           00                     
020000023300100000000001000020250512                        51202505120120300004152313226895964JOAQUIN GONZALEZ HERNANDEZ              3201070013000020820210113160038406800000JOAQUIN GONZALEZ HERNANDEZ              0000000000000000000001DOMICILIACION                           00                     
020000024300100000000001000020250512                        51202505120124000012320011532057385JAVIER ESTEBAN CLAUSEN                  3200885959000020820201231140829061000000JAVIER ESTEBAN CLAUSEN                  0000000000000000000001DOMICILIACION                           00                     
020000025300100000000002000020250512                        51202505120120300004152313358059058OMAR DAVID DIAZ ILLESCAS                3201034536000020920201222184003410900000OMAR DAVID DIAZ ILLESCAS                0000000000000000000001DOMICILIACION                           00                     
020000026300100000000002500020250512                        51202505120120300004152313616845967SERGIO MARTINEZ CASTILLO                3200326933000020620210126144316321900000SERGIO MARTINEZ CASTILLO                0000000000000000000001DOMICILIACION                           00                     
020000027300100000000001000020250512                        51202505120124000012180015137500868JORGE ADRIAN GONZALEZ RIVERA            6130000233000020920210210123326473300000JORGE ADRIAN GONZALEZ RIVERA            0000000000000000000001DOMICILIACION                           00                     
020000028300100000000001000020250512                        51202505120120300004815163000161821HECTOR FLORES SILOS                     3201047278000014820201224110813452200000HECTOR FLORES SILOS                     0000000000000000000001DOMICILIACION                           00                     
020000029300100000000020000020250512                        51202505120124000012180015871988445ADRIANA RAMIREZ LUNA                    3300495997000020820210131210520055600000ADRIANA RAMIREZ LUNA                    0000000000000000000001DOMICILIACION                           00                     
020000030300100000000001000020250512                        51202505120120300004152313384061003GRECIA ANGELICA MORALES GUZMAN          3300484397000021020201229150315135300000GRECIA ANGELICA MORALES GUZMAN          0000000000000000000001DOMICILIACION                           00                     
020000031300100000000010000020250512                        51202505120124000012180015731935208ANGEL RAUL MARTINEZ HUITRON             3300498739000014420210206124940031500000ANGEL RAUL MARTINEZ HUITRON             0000000000000000000001DOMICILIACION                           00                     
020000032300100000000002000020250512                        51202505120120300004152313719118908EDGAR IVAN ANGULO BEJARANO              3201353372000019720210515171518073700000EDGAR IVAN ANGULO BEJARANO              0000000000000000000001DOMICILIACION                           00                     
020000033300100000000015000020250512                        51202505120120300004152313708384511ERIC VALDOVINOS URQUIZA                 3201240382000020020210326140305438100000ERIC VALDOVINOS URQUIZA                 0000000000000000000001DOMICILIACION                           00                     
020000034300100000000001000020250512                        51202505120120300004152313528210136ANA BERENICE LOPEZ FERNANDEZ            3300141375000009520210515090721017800000ANA BERENICE LOPEZ FERNANDEZ            0000000000000000000001DOMICILIACION                           00                     
020000035300100000000005000020250512                        51202505120124000012580029463111216MARCELO GERARDO GARZA LAGUERA GONZALEZ  3201115446000009920210404212010089600000MARCELO GERARDO GARZA LAGUERA GONZALEZ  0000000000000000000001DOMICILIACION                           00                     
020000036300100000000001000020250512                        51202505120124000012680011754087174DANIEL ROJAS SANCHEZ                    3201248801000019920210331101445113500000DANIEL ROJAS SANCHEZ                    0000000000000000000001DOMICILIACION                           00                     
020000037300100000000001000020250512                        51202505120120300004152313474459604CRISTINA PAOLA DAMIAN BURGUENO          3201341075000020120210526180940701300000CRISTINA PAOLA DAMIAN BURGUENO          0000000000000000000001DOMICILIACION                           00                     
020000038300100000000002000020250512                        51202505120124000012308026645820047ANABEL CURENO REYES                     3201034965000021320201217163859091100000ANABEL CURENO REYES                     0000000000000000000001DOMICILIACION                           00                     
020000039300100000000002000020250512                        51202505120120300004152313739956287MARIA ALEJANDRA ORTIZ CARRILLO          3201056441000020920210107153757399700000MARIA ALEJANDRA ORTIZ CARRILLO          0000000000000000000001DOMICILIACION                           00                     
020000040300100000000002000020250512                        51202505120124000012225014636797562MARISOL SAAVEDRA BARRERA                3201351661000019320210515115329030800000MARISOL SAAVEDRA BARRERA                0000000000000000000001DOMICILIACION                           00                     
020000041300100000000001000020250512                        51202505120120300004152313672590275EVA VIVIANA TLAPALA HERRERA             3201287393000019620210514173054926800000EVA VIVIANA TLAPALA HERRERA             0000000000000000000001DOMICILIACION                           00                     
020000042300100000000001000020250512                        51202505120120300004152313700064285OSCAR LEONEL GIL GUADARRAMA             3200392462000019220210516151501126400000OSCAR LEONEL GIL GUADARRAMA             0000000000000000000001DOMICILIACION                           00                     
020000043300100000000003000020250512                        51202505120120300004152313656877797JULIO CESAR GODINEZ LORENZO             3201371071000019020210524125534885600000JULIO CESAR GODINEZ LORENZO             0000000000000000000001DOMICILIACION                           00                     
020000044300100000000002000020250512                        51202505120120300004152313327892126JOSE ALEJANDRO OLGUIN OSEGUEDA          3200432741000019820210407235337270400000JOSE ALEJANDRO OLGUIN OSEGUEDA          0000000000000000000001DOMICILIACION                           00                     
020000045300100000000001000020250512                        51202505120120300004152313529338027GUADALUPE OLAN FLORES                   3201054411000020920201231130658052900000GUADALUPE OLAN FLORES                   0000000000000000000001DOMICILIACION                           00                     
020000046300100000000001000020250512                        51202505120120300004152313735303849LORENA GARCIA BUENROSTRO                3300497096000020720210203173846333000000LORENA GARCIA BUENROSTRO                0000000000000000000001DOMICILIACION                           00                     
020000047300100000000001000020250512                        51202505120120300004152313738298160MARIELA PATRICIA MARTINEZ FRIAS         3201072409000020920210113172254440900000MARIELA PATRICIA MARTINEZ FRIAS         0000000000000000000001DOMICILIACION                           00                     
020000048300100000000001000020250512                        51202505120124000012180026421835953IRIS VAZQUEZ RADILLA                    3201182941000020020210322172603451900000IRIS VAZQUEZ RADILLA                    0000000000000000000001DOMICILIACION                           00                     
020000049300100000000001000020250512                        51202505120124000012180028575430778PAMELA SERVIN BUTANDA                   3201238361000019820210326131543416300000PAMELA SERVIN BUTANDA                   0000000000000000000001DOMICILIACION                           00                     
020000050300100000000002000020250512                        51202505120124000012180011145704809MARIA PAULINA CORRERO CAMPOS            3201214869000019720210406114927088700000MARIA PAULINA CORRERO CAMPOS            0000000000000000000001DOMICILIACION                           00                     
020000051300100000000002000020250512                        51202505120120300004152313190277561BEATRIZ ORTIZ JIMENEZ                   3201043990000010620201227133845010900000BEATRIZ ORTIZ JIMENEZ                   0000000000000000000001DOMICILIACION                           00                     
020000052300100000000002000020250512                        51202505120120300004815163015727889OMAR GARCIA MIRANDA                     3200381928000020820210130131232052500000OMAR GARCIA MIRANDA                     0000000000000000000001DOMICILIACION                           00                     
020000053300100000000001000020250512                        51202505120124000012180028780921179ARTURO MOLINA MUNIZ                     3201078461000021720210119134909170800000ARTURO MOLINA MUNIZ                     0000000000000000000001DOMICILIACION                           00                     
020000054300100000000020000020250512                        51202505120124000012180026939023820VICTORIA OLIVO HERNANDEZ                3300087540000021220210104155333000200000VICTORIA OLIVO HERNANDEZ                0000000000000000000001DOMICILIACION                           00                     
020000055300100000000001000020250512                        51202505120120300004152313616529561BLANCA VICTORIA AVILA GONZALEZ          3200849502000020520210116134311032200000BLANCA VICTORIA AVILA GONZALEZ          0000000000000000000001DOMICILIACION                           00                     
020000056300100000000001000020250512                        51202505120124000012650029110015582DULCE CORAL ROMERO PARADA               3090001306000021020210117203833025000000DULCE CORAL ROMERO PARADA               0000000000000000000001DOMICILIACION                           00                     
020000057300100000000020000020250512                        51202505120124000012180026863830684MARCO ANTONIO LAGUNA BRICENO            3200732165000009920210409223406127100000MARCO ANTONIO LAGUNA BRICENO            0000000000000000000001DOMICILIACION                           00                     
020000058300100000000002635020250512                        51202505120120300004152313654879928DIANA JAZMIN ESTRADA GARCIA             3300460931000020120210407072604004700000DIANA JAZMIN ESTRADA GARCIA             0000000000000000000001DOMICILIACION                           00                     
020000059300100000000001000020250512                        51202505120124000012180004639346243SILVIA AURORA GARCIA TERRES             3201337571000019320210508111708059000000SILVIA AURORA GARCIA TERRES             0000000000000000000001DOMICILIACION                           00                     
020000060300100000000002500020250512                        51202505120120300004152313750380292OCTAVIO VELAZQUEZ AVILA                 3201110708000020520210129090128018900000OCTAVIO VELAZQUEZ AVILA                 0000000000000000000001DOMICILIACION                           00                     
020000061300100000000002000020250512                        51202505120124000012667001876067102DAVID CARRASCO HERNANDEZ                3200773697000020820210111162535344300000DAVID CARRASCO HERNANDEZ                0000000000000000000001DOMICILIACION                           00                     
020000062300100000000001000020250512                        51202505120120300004152313406447859MAYELA ELOISA TORRES RODRIGUEZ          3201073849000021020210116183744068100000MAYELA ELOISA TORRES RODRIGUEZ          0000000000000000000001DOMICILIACION                           00                     
020000063300100000000005000020250512                        51202505120120300004152313369796326JOSE LUIS GARCIA CORTES                 3200764895000020920201229185855198800000JOSE LUIS GARCIA CORTES                 0000000000000000000001DOMICILIACION                           00                     
020000064300100000000002000020250512                        51202505120120300004152313659828144JOSE LUIS AVILA CHAVEZ                  3200443595000009120210806115943492100000JOSE LUIS AVILA CHAVEZ                  0000000000000000000001DOMICILIACION                           00                     
020000065300100000000002000020250512                        51202505120120300004152313487367950CARLOS ANTONIO ALMEIDA REYES            3300320156000009720210807100948822800000CARLOS ANTONIO ALMEIDA REYES            0000000000000000000001DOMICILIACION                           00                     
020000066300100000000001000020250512                        51202505120120300004152313758819333JORGE JULIAN GONZALEZ SALAZAR           3201408217000018720210614135248701700000JORGE JULIAN GONZALEZ SALAZAR           0000000000000000000001DOMICILIACION                           00                     
020000067300100000000002000020250512                        51202505120120300004152313409674277MIGUEL ANGEL GAYTAN MEDINA              3201320823000018920210703090152713100000MIGUEL ANGEL GAYTAN MEDINA              0000000000000000000001DOMICILIACION                           00                     
020000068300100000000002000020250512                        51202505120124000012180014228802023NATH YELI VELAZQUEZ FERRER              3201564038000017920210812161614655600000NATH YELI VELAZQUEZ FERRER              0000000000000000000001DOMICILIACION                           00                     
020000069300100000000001000020250512                        51202505120120300004152313731518051JOEL ALCANTAR ORTIZ                     3400471786000018020210814085741928100000JOEL ALCANTAR ORTIZ                     0000000000000000000001DOMICILIACION                           00                     
020000070300100000000003000020250512                        51202505120124000012180029884552870ANGELICA SUSANA HERNANDEZ VAZQUEZ       3201543919000011920210812110914219600000ANGELICA SUSANA HERNANDEZ VAZQUEZ       0000000000000000000001DOMICILIACION                           00                     
020000071300100000000001000020250512                        51202505120120300004152313488003257GABRIEL JUAREZ GONZALEZ                 3200626048000018520210706164422447200000GABRIEL JUAREZ GONZALEZ                 0000000000000000000001DOMICILIACION                           00                     
020000072300100000000002000020250512                        51202505120124000012180011354933157EDUARDO ALBERTO ALVARADO JIMENEZ        3201034230000021120201222121138244600000EDUARDO ALBERTO ALVARADO JIMENEZ        0000000000000000000001DOMICILIACION                           00                     
020000073300100000000005000020250512                        51202505120124000012180029314742192EDUARDO ANDRES PALACIO DE LA TEJA       3300485260000020920210104143749477200000EDUARDO ANDRES PALACIO DE LA TEJA       0000000000000000000001DOMICILIACION                           00                     
020000074300100000000001500020250512                        51202505120120300004152313405427464AURA ESTRELLA GALLARDO HARO             2140043743000020720210125101733350900000AURA ESTRELLA GALLARDO HARO             0000000000000000000001DOMICILIACION                           00                     
020000075300100000000010000020250512                        51202505120120300004152313325659097ESTEBAN DE JESUS TOVAR FLORES           3201391117000018920210602185435254100000ESTEBAN DE JESUS TOVAR FLORES           0000000000000000000001DOMICILIACION                           00                     
020000076300100000000010000020250512                        51202505120120300004152313648163546DANIEL BARBOSA SALAZAR                  3300566328000017620210630184021685000000DANIEL BARBOSA SALAZAR                  0000000000000000000001DOMICILIACION                           00                     
020000077300100000000001000020250512                        51202505120120300004152313774176197MA DE LA CRUZ HINOJOSA FIGUEROA         3201444450000018720210721094728570600000MA DE LA CRUZ HINOJOSA FIGUEROA         0000000000000000000001DOMICILIACION                           00                     
020000078300100000000001000020250512                        51202505120120300004152313738094395GUSTAVO ANGELES ALDANA                  3201545852000017420210918170654408400000GUSTAVO ANGELES ALDANA                  0000000000000000000001DOMICILIACION                           00                     
020000079300100000000001000020250512                        51202505120120300004152313608980962LUIS SOTO MARTINEZ                      3300498635000020520210205192911397800000LUIS SOTO MARTINEZ                      0000000000000000000001DOMICILIACION                           00                     
020000080300100000000002000020250512                        51202505120120300004152313610518255MARIA DEL CARMEN PEREA BARRIGA          3201060448000020320210210220647196400000MARIA DEL CARMEN PEREA BARRIGA          0000000000000000000001DOMICILIACION                           00                     
020000081300100000000010000020250512                        51202505120120300004152313603973830MONICA PRIMAVERA FLORES LOPEZ           3200633364000010920200928144226307500000MONICA PRIMAVERA FLORES LOPEZ           0000000000000000000001DOMICILIACION                           00                     
020000082300100000000001000020250512                        51202505120124000012680015185262629EDGAR MORALES SALINAS                   3300355097000021220201224144904014700000EDGAR MORALES SALINAS                   0000000000000000000001DOMICILIACION                           00                     
020000083300100000000001000020250512                        51202505120120300004152313486580348NYDIA MARYTZA FLORES MUNIZ              3201308139000019720210426164221144200000NYDIA MARYTZA FLORES MUNIZ              0000000000000000000001DOMICILIACION                           00                     
020000084300100000000002000020250512                        51202505120120300004152313732755454PATRICIA GONZALEZ LUCAS                 3201008167000020520210203201559393700000PATRICIA GONZALEZ LUCAS                 0000000000000000000001DOMICILIACION                           00                     
020000085300100000000001000020250512                        51202505120120300004152313598258866LUIS FELIPE ORTEGA RAMIREZ              3201114598000020720210205083041014100000LUIS FELIPE ORTEGA RAMIREZ              0000000000000000000001DOMICILIACION                           00                     
020000086300100000000001000020250512                        51202505120120300004152313749399163JESUS ANDREY GONZALEZ PINACHO           3300503110000020620210216104524064100000JESUS ANDREY GONZALEZ PINACHO           0000000000000000000001DOMICILIACION                           00                     
020000087300100000000005000020250512                        51202505120124000012180011042188926JOSE LUIS LIMA RODRIGUEZ                3200767920000021620201217121304465800000JOSE LUIS LIMA RODRIGUEZ                0000000000000000000001DOMICILIACION                           00                     
020000088300100000000002000020250512                        51202505120120300004152313593502482IRVING GAMA SANDOVAL                    3200919342000010920201106114624397900000IRVING GAMA SANDOVAL                    0000000000000000000001DOMICILIACION                           00                     
020000089300100000000001000020250512                        51202505120120300004152313712604565ANGELICA GARCIA CASTILLO                3201197125000019920210309214951410400000ANGELICA GARCIA CASTILLO                0000000000000000000001DOMICILIACION                           00                     
020000090300100000000002500020250512                        51202505120120300004152313349328810JUAN MANUEL DIAZ HINOJOSA               3201115562000020520210211133635392000000JUAN MANUEL DIAZ HINOJOSA               0000000000000000000001DOMICILIACION                           00                     
020000091300100000000001000020250512                        51202505120120300004152313492471862PABLO GALLEGOS OLALDE                   3201134235000020320210209203928449400000PABLO GALLEGOS OLALDE                   0000000000000000000001DOMICILIACION                           00                     
020000092300100000000001000020250512                        51202505120124000012180004761677725RAMON ANTONIO MENDEZ MANCILLA           3201189554000007320220420143721419900000RAMON ANTONIO MENDEZ MANCILLA           0000000000000000000001DOMICILIACION                           00                     
020000093300100000000005000020250512                        51202505120120300004152313509241035PABLO IVAN BUSTAMANTE PERALTA           3202025214000014820220411131947606500000PABLO IVAN BUSTAMANTE PERALTA           0000000000000000000001DOMICILIACION                           00                     
020000094300100000000001000020250512                        51202505120124000012180015662963860GILBERTO GOMEZ SILVA                    3300506409000012620220411132351610400000GILBERTO GOMEZ SILVA                    0000000000000000000001DOMICILIACION                           00                     
020000095300100000000002000020250512                        51202505120124000012180015015409476ALEJANDRO DUARTE CHAVARRIA              3201851896000017020211231090746239200000ALEJANDRO DUARTE CHAVARRIA              0000000000000000000001DOMICILIACION                           00                     
020000096300100000000001000020250512                        51202505120124000012470014734291728LEOPOLDO GALINDO ESPINOSA               3201828259000016520211223132633490800000LEOPOLDO GALINDO ESPINOSA               0000000000000000000001DOMICILIACION                           00                     
020000097300100000000002000020250512                        51202505120124000012261028474734193ALEJANDRA MORALES SUASTEGUI             3200480405000016720211216214716005900000ALEJANDRA MORALES SUASTEGUI             0000000000000000000001DOMICILIACION                           00                     
020000098300100000000002500020250512                        51202505120124000012180015035958460ISADORA MARTINEZ ARELLANO               6442008190000016820211229102331049300000ISADORA MARTINEZ ARELLANO               0000000000000000000001DOMICILIACION                           00                     
020000099300100000000001000020250512                        51202505120124000012180015216890101VICTOR HUGO CORTES GUZMAN               3202054155000015020220404180647516500000VICTOR HUGO CORTES GUZMAN               0000000000000000000001DOMICILIACION                           00                     
020000100300100000000002250020250512                        51202505120124000012320015463360684RODOLFO RODRIGUEZ DE LA TORRE           3202043198000015120220401115637537900000RODOLFO RODRIGUEZ DE LA TORRE           0000000000000000000001DOMICILIACION                           00                     
020000101300100000000001000020250512                        51202505120124000012180015795782455CLAUDIA KARINA PINERA ORTEGA            3300692280000015020220405174609041100000CLAUDIA KARINA PINERA ORTEGA            0000000000000000000001DOMICILIACION                           00                     
020000102300100000000002700020250512                        51202505120120300004152313556738669ALEXANDRA MONTSERRAT SIDA CRESPO        3202067783000014820220408145437876600000ALEXANDRA MONTSERRAT SIDA CRESPO        0000000000000000000001DOMICILIACION                           00                     
020000103300100000000010000020250512                        51202505120124000012180029239673951HECTOR FRANCISCO SORIANO GARCIA         3202029626000007820220404112315192200000HECTOR FRANCISCO SORIANO GARCIA         0000000000000000000001DOMICILIACION                           00                     
020000104300100000000001000020250512                        51202505120120300004152313532257081AUREA LOPEZ FLORES                      3202056034000015220220404151916401400000AUREA LOPEZ FLORES                      0000000000000000000001DOMICILIACION                           00                     
020000105300100000000001000020250512                        51202505120120300004152313612528310GERARDO MARTINEZ GARCIA                 3201998768000015520220303173241913700000GERARDO MARTINEZ GARCIA                 0000000000000000000001DOMICILIACION                           00                     
020000106300100000000005000020250512                        51202505120120300004152313320634681FIDEL LOPEZ QUINTERO                    3201436897000015020220317112346572700000FIDEL LOPEZ QUINTERO                    0000000000000000000001DOMICILIACION                           00                     
020000107300100000000002000020250512                        51202505120124000012180026021996616CAROLINA LOPEZ ESPINOSA                 3201644933000015720220225101216001300000CAROLINA LOPEZ ESPINOSA                 0000000000000000000001DOMICILIACION                           00                     
020000108300100000000002000020250512                        51202505120124000012580028620044457DEYANIRA MARTINEZ MUNOZ                 3200570155000007720220222220403835900000DEYANIRA MARTINEZ MUNOZ                 0000000000000000000001DOMICILIACION                           00                     
020000109300100000000001500020250512                        51202505120124000012180015987578723FRANCESCO MARTINO MILLAN SOTO           3201989412000015820220228132015064400000FRANCESCO MARTINO MILLAN SOTO           0000000000000000000001DOMICILIACION                           00                     
020000110300100000000001000020250512                        51202505120120300004152313729432091MARTIN CONTRERAS SOTO                   3201984734000015620220304114751171500000MARTIN CONTRERAS SOTO                   0000000000000000000001DOMICILIACION                           00                     
020000111300100000000001000020250512                        51202505120124000012180015528657692MIGUEL ANGEL COCOM NOH                  3200070270000007720220303021301048900000MIGUEL ANGEL COCOM NOH                  0000000000000000000001DOMICILIACION                           00                     
020000112300100000000002000020250512                        51202505120124000012180029561759611HECTOR FRANCISCO MIRANDA PAZ            3202004558000015520220307134637154600000HECTOR FRANCISCO MIRANDA PAZ            0000000000000000000001DOMICILIACION                           00                     
020000113300100000000001000020250512                        51202505120124000012180015273029672LUIS GERARDO MARTINEZ MARTINEZ          3201992322000015920220301192729899300000LUIS GERARDO MARTINEZ MARTINEZ          0000000000000000000001DOMICILIACION                           00                     
020000114300100000000002000020250512                        51202505120124000012180011643884027KAIRANNE VILLASENOR ROSAS               3202057431000007620220404153439412100000KAIRANNE VILLASENOR ROSAS               0000000000000000000001DOMICILIACION                           00                     
020000115300100000000001000020250512                        51202505120124000012180015207712722MIRIAM NOHEMI CERON MARTINEZ            3202063973000014720220408172227956100000MIRIAM NOHEMI CERON MARTINEZ            0000000000000000000001DOMICILIACION                           00                     
020000116300100000000002000020250512                        51202505120120300004152313488594347JUAN ALCALA DORAME                      3400611551000007320220412152516486700000JUAN ALCALA DORAME                      0000000000000000000001DOMICILIACION                           00                     
020000117300100000000001094320250512                        51202505120120300004152313280958765JOSUE DAVID MARTINEZ PEREZ              1970036366000015120220327090635064000000JOSUE DAVID MARTINEZ PEREZ              0000000000000000000001DOMICILIACION                           00                     
020000118300100000000001000020250512                        51202505120124000012744029889092535JOEL HUMBERTO VELARDE HERNANDEZ         3201685795000017420211009130503381200000JOEL HUMBERTO VELARDE HERNANDEZ         0000000000000000000001DOMICILIACION                           00                     
020000119300100000000001000020250512                        51202505120120300004152313634913292OSCAR CORTEZ GONZALEZ                   3201650984000016920211028192349469500000OSCAR CORTEZ GONZALEZ                   0000000000000000000001DOMICILIACION                           00                     
020000120300100000000002000020250512                        51202505120120300004815163078460329ELIDA MELISA RODRIGUEZ DELGADO          3400510621000008120220106092351311100000ELIDA MELISA RODRIGUEZ DELGADO          0000000000000000000001DOMICILIACION                           00                     
020000121300100000000001000020250512                        51202505120120300004152313733203512ISRAEL BERNAL MENDOZA                   3201848238000016420220107143328332800000ISRAEL BERNAL MENDOZA                   0000000000000000000001DOMICILIACION                           00                     
020000122300100000000001500020250512                        51202505120120300004152313479000825LUIS ARTURO CHAVEZ ROJAS                3201834807000016320220105143437038600000LUIS ARTURO CHAVEZ ROJAS                0000000000000000000001DOMICILIACION                           00                     
020000123300100000000001000020250512                        51202505120124000012180015290935134RODRIGO JESUS TORRES TIRADO             3300655615000016220220112141740864900000RODRIGO JESUS TORRES TIRADO             0000000000000000000001DOMICILIACION                           00                     
020000124300100000000002000020250512                        51202505120124000012790012605535813BERENICE GONZALEZ PEREDA                0010052909000008320220110055502781800000BERENICE GONZALEZ PEREDA                0000000000000000000001DOMICILIACION                           00                     
020000125300100000000003000020250512                        51202505120120300004152313800511235BRENDA ALVAREZ GUZMAN                   3201961636000015520220224164852774600000BRENDA ALVAREZ GUZMAN                   0000000000000000000001DOMICILIACION                           00                     
020000126300100000000002500020250512                        51202505120124000012180028872835128MARIA DEL CARMEN MENDOZA MARTINEZ       3201934998000016220220305112456229300000MARIA DEL CARMEN MENDOZA MARTINEZ       0000000000000000000001DOMICILIACION                           00                     
020000127300100000000007500020250512                        51202505120124000012180014370990100HALLIN SINAI HERNANDEZ MORENO           6060006854000008120220302220437032500000HALLIN SINAI HERNANDEZ MORENO           0000000000000000000001DOMICILIACION                           00                     
020000128300100000000001000020250512                        51202505120124000012470004589760825MAYRA LIZETHE MADRIGAL ARCEO            3201816190000017520211213141631007900000MAYRA LIZETHE MADRIGAL ARCEO            0000000000000000000001DOMICILIACION                           00                     
020000129300100000000001000020250512                        51202505120124000012155028197572609SERGEI FERNANDO MELENDEZ SALAS          3300636327000016420220103112425841100000SERGEI FERNANDO MELENDEZ SALAS          0000000000000000000001DOMICILIACION                           00                     
020000130300100000000001000020250512                        51202505120120300004152313408433089RICARDO TOVAR AGUAS                     3201823262000017220211223115000362500000RICARDO TOVAR AGUAS                     0000000000000000000001DOMICILIACION                           00                     
020000131300100000000001000020250512                        51202505120124000012180015717570726CARLOS VALDOVINOS ANTONIO               3300628261000017020211113193913429800000CARLOS VALDOVINOS ANTONIO               0000000000000000000001DOMICILIACION                           00                     
020000132300100000000005000020250512                        51202505120120300004152313428229822LEONEL PALACIOS LOPEZ                   3201224065000017820211025183457551800000LEONEL PALACIOS LOPEZ                   0000000000000000000001DOMICILIACION                           00                     
020000133300100000000003000020250512                        51202505120124000012312004707583612ABRAHAM GARCIA ROMO                     3201633051000016620211113200218431900000ABRAHAM GARCIA ROMO                     0000000000000000000001DOMICILIACION                           00                     
020000134300100000000005000020250512                        51202505120120300004152313419232769ANDRES GUILLERMO VALENZUELA MIRANDA     3100050898000014620211101164500727600000ANDRES GUILLERMO VALENZUELA MIRANDA     0000000000000000000001DOMICILIACION                           00                     
020000135300100000000001000020250512                        51202505120120300004152313803153100GILBERTO GARCIA MARTINEZ                3201922249000016220220129152611006000000GILBERTO GARCIA MARTINEZ                0000000000000000000001DOMICILIACION                           00                     
020000136300100000000001000020250512                        51202505120120300004152313753373740FREDI DE LA CRUZ RODRIGUEZ              3201961476000016320220216122144008600000FREDI DE LA CRUZ RODRIGUEZ              0000000000000000000001DOMICILIACION                           00                     
020000137300100000000001000020250512                        51202505120124000012180012639391976ANA KAREN MORA RIVERO                   3201736941000017820211217101746426700000ANA KAREN MORA RIVERO                   0000000000000000000001DOMICILIACION                           00                     
020000138300100000000003000020250512                        51202505120120300004152313496447678OSCAR MARTINEZ PEREZ                    3201054221000016520211223210524764200000OSCAR MARTINEZ PEREZ                    0000000000000000000001DOMICILIACION                           00                     
020000139300100000000001000020250512                        51202505120120300004152313807262410NOEMI ARIAS VALENCIA                    3201849206000017220211231111124295400000NOEMI ARIAS VALENCIA                    0000000000000000000001DOMICILIACION                           00                     
020000140300100000000001000020250512                        51202505120124000012130015159903163MATZA APARICIO JIMENEZ                  3201844502000016320220104132931423400000MATZA APARICIO JIMENEZ                  0000000000000000000001DOMICILIACION                           00                     
020000141300100000000004000020250512                        51202505120120300004152313773019067MARIELA CARCAMO DIEGO                   2810003465000016320211228121525627300000MARIELA CARCAMO DIEGO                   0000000000000000000001DOMICILIACION                           00                     
020000142300100000000001500020250512                        51202505120124000012910011575245603RUBICEL MERITO LOPEZ                    3200066191000016320220101150037501100000RUBICEL MERITO LOPEZ                    0000000000000000000001DOMICILIACION                           00                     
020000143300100000000005000020250512                        51202505120120300004152313574242330ANGEL FERNANDO OLVERA SUMANO            3300308253000016420220115132204945100000ANGEL FERNANDO OLVERA SUMANO            0000000000000000000001DOMICILIACION                           00                     
020000144300100000000002000020250512                        51202505120120300004152313438563533HILARIO PALACIOS DELFIN                 3201683995000017120211021095348081700000HILARIO PALACIOS DELFIN                 0000000000000000000001DOMICILIACION                           00                     
020000145300100000000001000020250512                        51202505120124000012180014724703228ANGELICA ESPINOSA VILLANUEVA            3201699299000016920211026160512383300000ANGELICA ESPINOSA VILLANUEVA            0000000000000000000001DOMICILIACION                           00                     
020000146300100000000002000020250512                        51202505120120300004152313679421193CARLOS OLVERA RODRIGUEZ                 3201721600000017320211028094640459800000CARLOS OLVERA RODRIGUEZ                 0000000000000000000001DOMICILIACION                           00                     
020000147300100000000001000020250512                        51202505120120300004152313447637211NANCY ADRIANA SUAREZ OCHOA              3300617405000017020211027152814199400000NANCY ADRIANA SUAREZ OCHOA              0000000000000000000001DOMICILIACION                           00                     
020000148300100000000002000020250512                        51202505120124000012180014322861494CAROLINA GEORGINA AGUILAR RODRIGUEZ     3201689488000017820211104171442769000000CAROLINA GEORGINA AGUILAR RODRIGUEZ     0000000000000000000001DOMICILIACION                           00                     
020000149300100000000001000020250512                        51202505120120300004152313480011282ISAEL ALPIZAR OLIVA                     1280058100000016920211106134621809000000ISAEL ALPIZAR OLIVA                     0000000000000000000001DOMICILIACION                           00                     
020000150300100000000005000020250512                        51202505120120300004555103004549245CARLOS ALEJANDRO DE LA CERDA ENRIQUEZ   3201615937000017220211008160751199100000CARLOS ALEJANDRO DE LA CERDA ENRIQUEZ   0000000000000000000001DOMICILIACION                           00                     
020000151300100000000002000020250512                        51202505120124000012180015939409824MONSERRAT ELISA HERNANDEZ CRUZ          3400516498000015320220405145651904200000MONSERRAT ELISA HERNANDEZ CRUZ          0000000000000000000001DOMICILIACION                           00                     
020000152300100000000005000020250512                        51202505120120300004152313510513141SERGIO CAMAL UGARTE                     3200164147000014720220412104211085900000SERGIO CAMAL UGARTE                     0000000000000000000001DOMICILIACION                           00                     
020000153300100000000001000020250512                        51202505120120300004152313623991812EDGAR DANIEL LUNA RODRIGUEZ             3202080234000014820220421194156141500000EDGAR DANIEL LUNA RODRIGUEZ             0000000000000000000001DOMICILIACION                           00                     
020000154300100000000001500020250512                        51202505120120300004152313796494941ISMAEL ALEJANDRO MAYA SIGALES           3202077036000014720220420181821583200000ISMAEL ALEJANDRO MAYA SIGALES           0000000000000000000001DOMICILIACION                           00                     
020000155300100000000001000020250512                        51202505120120300004152313563393508MIGUEL ANGEL CUEVAS TENERIA             3202047515000014820220329113400747800000MIGUEL ANGEL CUEVAS TENERIA             0000000000000000000001DOMICILIACION                           00                     
020000156300100000000002500020250512                        51202505120124000012650026444015578FERNANDO MOJICA FERNANDEZ               3201982163000015520220301182116863700000FERNANDO MOJICA FERNANDEZ               0000000000000000000001DOMICILIACION                           00                     
020000157300100000000001000020250512                        51202505120120300004152313781397844ERENDIRA ARACELI RAMIREZ RODRIGUEZ      3201874077000015620220304152340600000000ERENDIRA ARACELI RAMIREZ RODRIGUEZ      0000000000000000000001DOMICILIACION                           00                     
020000158300100000000001000020250512                        51202505120124000012180028633350114JORGE EDUARDO ENRIQUEZ GONZALEZ         3202072095000014820220412092119013200000JORGE EDUARDO ENRIQUEZ GONZALEZ         0000000000000000000001DOMICILIACION                           00                     
020000159300100000000005000020250512                        51202505120124000012180015055969170MARIA ELIZABETH GARCIA APARICIO         3202042482000007520220407173403398200000MARIA ELIZABETH GARCIA APARICIO         0000000000000000000001DOMICILIACION                           00                     
020000160300100000000001000020250512                        51202505120120300004152313821186900CRISTIAN EDUARDO QUEZADA ALDAZ          3202062165000015020220406105738356600000CRISTIAN EDUARDO QUEZADA ALDAZ          0000000000000000000001DOMICILIACION                           00                     
020000161300100000000002500020250512                        51202505120120300004152313741872589ANTONIO SALCEDO GALVAN                  3300693960000007520220408145749879100000ANTONIO SALCEDO GALVAN                  0000000000000000000001DOMICILIACION                           00                     
020000162300100000000001000020250512                        51202505120120300004815163075364011ALEJANDRO ROBERTO CASTANON MANTILLA     3201805447000015820220316173134238600000ALEJANDRO ROBERTO CASTANON MANTILLA     0000000000000000000001DOMICILIACION                           00                     
020000163300100000000001000020250512                        51202505120120300004152313889521709PEDRO CALDERON COLLAZO                  3300111810000007520220324172928673600000PEDRO CALDERON COLLAZO                  0000000000000000000001DOMICILIACION                           00                     
020000164300100000000005000020250512                        51202505120124000012790015726790437MIGUEL ANTONIO FRIAS NARVAEZ            2470018866000017220211013111102378600000MIGUEL ANTONIO FRIAS NARVAEZ            0000000000000000000001DOMICILIACION                           00                     
020000165300100000000002500020250512                        51202505120120300004152313454969507EMELIA FIGUEROA LOPEZ                   3400154923000016320211227152942099800000EMELIA FIGUEROA LOPEZ                   0000000000000000000001DOMICILIACION                           00                     
020000166300100000000001000020250512                        51202505120120300004152313743389541CARLOS ABOYTES TORRES                   3201747389000016320220105190021216900000CARLOS ABOYTES TORRES                   0000000000000000000001DOMICILIACION                           00                     
020000167300100000000003500020250512                        51202505120124000012100012392544202ANDRES ANTONIO VILLALOBOS CAMACHO       3200820661000016420220105131137968400000ANDRES ANTONIO VILLALOBOS CAMACHO       0000000000000000000001DOMICILIACION                           00                     
020000168300100000000005000020250512                        51202505120120300004152313496871786ALEJANDRO CRUZ GUTIERREZ                3201644656000017520210921172032194000000ALEJANDRO CRUZ GUTIERREZ                0000000000000000000001DOMICILIACION                           00                     
020000169300100000000001000020250512                        51202505120124000012180015304165997MARTHA SOTO GARCIA                      3201735365000017120211103114259282200000MARTHA SOTO GARCIA                      0000000000000000000001DOMICILIACION                           00                     
020000170300100000000001000020250512                        51202505120124000012215027353568068MARIA MICAELA EVARISTO VAZQUEZ          3200586303000027320190822152118020800000MARIA MICAELA EVARISTO VAZQUEZ          0000000000000000000001DOMICILIACION                           00                     
020000171300100000000001000020250512                        51202505120124000012180014799822561IRIS JULIETA MARTINEZ DE LEON           3200597619000027520190828081309024100000IRIS JULIETA MARTINEZ DE LEON           0000000000000000000001DOMICILIACION                           00                     
020000172300100000000001000020250512                        51202505120120300004152313428424589LUIS FERNANDO ARROYO GUMETA             3200598764000013720190828081410035100000LUIS FERNANDO ARROYO GUMETA             0000000000000000000001DOMICILIACION                           00                     
020000173300100000000005000020250512                        51202505120120300004152313223313151PABLO GONZALEZ GARCIA                   3200595503000022420190823160838003800000PABLO GONZALEZ GARCIA                   0000000000000000000001DOMICILIACION                           00                     
020000174300100000000001000020250512                        51202505120120300004152313395250736JOSE ABRAHAM GARCIA CAMACHO             3200597982000027820190828081219015100000JOSE ABRAHAM GARCIA CAMACHO             0000000000000000000001DOMICILIACION                           00                     
020000175300100000000001500020250512                        51202505120124000012180011947160780SARAI LOZADA ORTIZ                      3200704726000025020200305203734219200000SARAI LOZADA ORTIZ                      0000000000000000000001DOMICILIACION                           00                     
020000176300100000000005000020250512                        51202505120124000012680029934695145GABRIEL MIRELES ARAN                    3200523907000024620200408125720170700000GABRIEL MIRELES ARAN                    0000000000000000000001DOMICILIACION                           00                     
020000177300100000000002000020250512                        51202505120120300004152313405394912ROSA MARIA PEGUERO CEJA                 3200615370000012920200204164205006800000ROSA MARIA PEGUERO CEJA                 0000000000000000000001DOMICILIACION                           00                     
020000178300100000000002000020250512                        51202505120120300004152313575602672ISRAEL BAUTISTA RUIZ                    3200674175000012920200127090458014300000ISRAEL BAUTISTA RUIZ                    0000000000000000000001DOMICILIACION                           00                     
020000179300100000000005000020250512                        51202505120124000012210011798464848LEONCIO VAZQUEZ TORRES                  3500003900000012520200210121739147300000LEONCIO VAZQUEZ TORRES                  0000000000000000000001DOMICILIACION                           00                     
020000180300100000000001000020250512                        51202505120120300004152313415974018ROMINA ISABEL MARTINEZ RODRIGUEZ        3200464016000025720200317112407468100000ROMINA ISABEL MARTINEZ RODRIGUEZ        0000000000000000000001DOMICILIACION                           00                     
020000181300100000000005000020250512                        51202505120120300004152313562723457IRVINGH CARLOS ALEXIS DELGADO GARCIA    3300410194000012520200225150651375400000IRVINGH CARLOS ALEXIS DELGADO GARCIA    0000000000000000000001DOMICILIACION                           00                     
020000182300100000000004000020250512                        51202505120120300004152313716924175ALFREDO SANCHEZ SOLANO                  3201036862000020120210220094228010700000ALFREDO SANCHEZ SOLANO                  0000000000000000000001DOMICILIACION                           00                     
020000183300100000000001000020250512                        51202505120120300004152313313061264CARLOS AYALA CAMACHO                    3201174722000010320210226134341220900000CARLOS AYALA CAMACHO                    0000000000000000000001DOMICILIACION                           00                     
020000184300100000000002000020250512                        51202505120120300004152313339664349ABIGAIL MONTSERRATH RAMIREZ SAPIEN      3300472621000010720201125192943064600000ABIGAIL MONTSERRATH RAMIREZ SAPIEN      0000000000000000000001DOMICILIACION                           00                     
020000185300100000000001000020250512                        51202505120120300004152313209957450CLEMENCIA BARCENAS MANDUJANO            3200856787000021320201203131811369600000CLEMENCIA BARCENAS MANDUJANO            0000000000000000000001DOMICILIACION                           00                     
020000186300100000000002000020250512                        51202505120124000012180014052692881ADRIANA GALICIA VARGAS                  3200999672000021520201203105750293700000ADRIANA GALICIA VARGAS                  0000000000000000000001DOMICILIACION                           00                     
020000187300100000000003000020250512                        51202505120124000012180015594742887CINTHIA PAULINA ROJAS GONZALEZ          3300477013000016320201205194423039200000CINTHIA PAULINA ROJAS GONZALEZ          0000000000000000000001DOMICILIACION                           00                     
020000188300100000000001000020250512                        51202505120120300004152313511830494VICTOR MANUEL RAMOS LARA                3200743155000019920210318134227131600000VICTOR MANUEL RAMOS LARA                0000000000000000000001DOMICILIACION                           00                     
020000189300100000000001000020250512                        51202505120120300004152313500051995FLAVIO ANTONIO GONZALEZ SANTIZO         3201213658000009020210930213651929800000FLAVIO ANTONIO GONZALEZ SANTIZO         0000000000000000000001DOMICILIACION                           00                     
020000190300100000000002500020250512                        51202505120124000012760014220507306FRANCISCO JAVIER CORONADO SALAZAR       3201654694000018020210927233657575500000FRANCISCO JAVIER CORONADO SALAZAR       0000000000000000000001DOMICILIACION                           00                     
020000191300100000000001000020250512                        51202505120124000012180011215465971MOISES HERRERA PALMA                    3201594406000017520210909132205249400000MOISES HERRERA PALMA                    0000000000000000000001DOMICILIACION                           00                     
020000192300100000000001000020250512                        51202505120120300004152313331521851NORMA EVELIN ARCINIEGA ALVAREZ          3300334226000017720210905083918702700000NORMA EVELIN ARCINIEGA ALVAREZ          0000000000000000000001DOMICILIACION                           00                     
020000193300100000000002500020250512                        51202505120120300004152313752785779FERNANDO ADALBERTO MITZNAHUATL HERNANDEZ2030005106000017720210826202411528700000FERNANDO ADALBERTO MITZNAHUATL HERNANDEZ0000000000000000000001DOMICILIACION                           00                     
020000194300100000000001000020250512                        51202505120120300004152313699033010ANA IRMA QUEZADA FRIAS                  3201613810000018520210902184316982300000ANA IRMA QUEZADA FRIAS                  0000000000000000000001DOMICILIACION                           00                     
020000195300100000000005000020250512                        51202505120120300004152313611712485AXLISES ARREOLA LORENZANA               3201353373000019020210519161040125400000AXLISES ARREOLA LORENZANA               0000000000000000000001DOMICILIACION                           00                     
020000196300100000000001000020250512                        51202505120120300004152313461606373JOSE LUIS RAMIREZ FLORES                3200835809000019520210326194210045400000JOSE LUIS RAMIREZ FLORES                0000000000000000000001DOMICILIACION                           00                     
020000197300100000000002000020250512                        51202505120120300004152313567144857ARLETH BERENICE CASILLAS PEREZ          3201423968000019620210614152204769800000ARLETH BERENICE CASILLAS PEREZ          0000000000000000000001DOMICILIACION                           00                     
020000198300100000000002500020250512                        51202505120120300004152313776065166GABRIEL JARDINES VILLA                  3201416672000019020210611113941733400000GABRIEL JARDINES VILLA                  0000000000000000000001DOMICILIACION                           00                     
020000199300100000000008000020250512                        51202505120124000012730014646297288JULIO CESAR GARCIA VALENTIN             3201389187000018920210604122336374000000JULIO CESAR GARCIA VALENTIN             0000000000000000000001DOMICILIACION                           00                     
020000200300100000000001000020250512                        51202505120124000012180011314187189GABRIELA MERINO GODINEZ                 3201434150000019920210617143614612800000GABRIELA MERINO GODINEZ                 0000000000000000000001DOMICILIACION                           00                     
020000201300100000000001500020250512                        51202505120124000012320027926405702LUCIA GUDINO MARTINEZ                   3201367658000019120210601185013721800000LUCIA GUDINO MARTINEZ                   0000000000000000000001DOMICILIACION                           00                     
020000202300100000000005000020250512                        51202505120124000012580027667520472MYRNA ADRIANA TREVINO DE LA TORRE       0990055169000018520210705181116671200000MYRNA ADRIANA TREVINO DE LA TORRE       0000000000000000000001DOMICILIACION                           00                     
020000203300100000000001000020250512                        51202505120124000012150029309521840JOSE MARIO TERRAZAS SALAZAR             3201417997000018720210610154728714100000JOSE MARIO TERRAZAS SALAZAR             0000000000000000000001DOMICILIACION                           00                     
020000204300100000000001500020250512                        51202505120120300004152313367668931LUIS FABIAN PLATA LOPEZ                 3300504830000020920210218172854075900000LUIS FABIAN PLATA LOPEZ                 0000000000000000000001DOMICILIACION                           00                     
020000205300100000000001000020250512                        51202505120120300004152313750791464JOSE ANGEL URBINA LINAN                 3200813014000020020210304172340124400000JOSE ANGEL URBINA LINAN                 0000000000000000000001DOMICILIACION                           00                     
020000206300100000000002000020250512                        51202505120120300004152313729748603GILBERTO MANUEL ACUNA DIAZ              3200447614000020320210308080014004300000GILBERTO MANUEL ACUNA DIAZ              0000000000000000000001DOMICILIACION                           00                     
020000207300100000000001000020250512                        51202505120120300004152313661137997ADRIANA ROMERO CORTES                   3200330412000009520210606133409944900000ADRIANA ROMERO CORTES                   0000000000000000000001DOMICILIACION                           00                     
020000208300100000000005000020250512                        51202505120120300004152313270678035HUMBERTO SILVA DIAZ                     3201326605000021420210504184128079300000HUMBERTO SILVA DIAZ                     0000000000000000000001DOMICILIACION                           00                     
020000209300100000000002000020250512                        51202505120120300004152313513824685MANUEL IGNACIO FIGUEROA LUIS            3201240738000019820210325194612175500000MANUEL IGNACIO FIGUEROA LUIS            0000000000000000000001DOMICILIACION                           00                     
020000210300100000000005000020250512                        51202505120120300004152313570277462RAFAEL HERNANDEZ GONZALEZ               3100119734000019920210329160618066300000RAFAEL HERNANDEZ GONZALEZ               0000000000000000000001DOMICILIACION                           00                     
020000211300100000000050583420250512                        51202505120124000012180029929817344DIANA LILIA TELLEZ QUIROZ               3201156781000021820210219164910025800000DIANA LILIA TELLEZ QUIROZ               0000000000000000000001DOMICILIACION                           00                     
020000212300100000000001000020250512                        51202505120124000012910011527883738RUBI EUGENIA FERRAEZ CARO               3201158856000020620210303155546381000000RUBI EUGENIA FERRAEZ CARO               0000000000000000000001DOMICILIACION                           00                     
020000213300100000000002000020250512                        51202505120120300004152313713350192JOSE ADOLFO GUTIERREZ GUTIERREZ         3300554331000016920210603105709413300000JOSE ADOLFO GUTIERREZ GUTIERREZ         0000000000000000000001DOMICILIACION                           00                     
020000214300100000000001000020250512                        51202505120120300004815163113224508AMERICA DANIELA GONZALEZ GONZALEZ       3300840150000006120240127122145838400000AMERICA DANIELA GONZALEZ GONZALEZ       0000000000000000000001DOMICILIACION                           00                     
020000215300100000000002500020250512                        51202505120120300004152313735369360ROBERTO HIDALGO REYES                   3300265905000005720240309164736874900000ROBERTO HIDALGO REYES                   0000000000000000000001DOMICILIACION                           00                     
020000216300100000000001000020250512                        51202505120124000012180015091768212SINDY LISSET MOLINA MORENO              3202714291000002920240304114255751500000SINDY LISSET MOLINA MORENO              0000000000000000000001DOMICILIACION                           00                     
020000217300100000000001000020250512                        51202505120120300004152313657688060JESUS URIEL GUILLEN MARTINEZ            3300902389000006520240103184150866500000JESUS URIEL GUILLEN MARTINEZ            0000000000000000000001DOMICILIACION                           00                     
020000218300100000000001000020250512                        51202505120120300004815163024846498MARLEN GRICEL ARREDONDO VIZCAYA         3201453814000003120240117214428991500000MARLEN GRICEL ARREDONDO VIZCAYA         0000000000000000000001DOMICILIACION                           00                     
020000219300100000000004000020250512                        51202505120124000012180027375634500DORIAN JIMENEZ ALVARADO                 3200354803000003120240213123038172700000DORIAN JIMENEZ ALVARADO                 0000000000000000000001DOMICILIACION                           00                     
020000220300100000000001000020250512                        51202505120124000012670015234288182JESUS GARCIA DOMINGUEZ                  3202658308000006520240112180623212500000JESUS GARCIA DOMINGUEZ                  0000000000000000000001DOMICILIACION                           00                     
020000221300100000000001000020250512                        51202505120120300004152313705233968OMAR BELTRAN MARENTES                   3202655949000006320240110192933840400000OMAR BELTRAN MARENTES                   0000000000000000000001DOMICILIACION                           00                     
020000222300100000000001000020250512                        51202505120120300004152314012935386UVALDO JUAREZ HERNANDEZ                 3202654517000002920240111125252236000000UVALDO JUAREZ HERNANDEZ                 0000000000000000000001DOMICILIACION                           00                     
020000223300100000000001000020250512                        51202505120124000012180014848295735ROCIO MORA SANDOVAL                     6449063708000004820230801164206133000000ROCIO MORA SANDOVAL                     0000000000000000000001DOMICILIACION                           00                     
020000224300100000000002000020250512                        51202505120120300004152313932873099EDILIA PI!A SALGADO                     6449066312000009120230802102316513100000EDILIA PI!A SALGADO                     0000000000000000000001DOMICILIACION                           00                     
020000225300100000000001000020250512                        51202505120124000012180015892802034BRENDA GUADALUPE SANCHEZ MONTANEZ       3202515299000004320230720103739425800000BRENDA GUADALUPE SANCHEZ MONTANEZ       0000000000000000000001DOMICILIACION                           00                     
020000226300100000000001000020250512                        51202505120124000012180012480716409ALMA HAIDEE PINACHO LOPEZ               3202447087000008720230808111732899400000ALMA HAIDEE PINACHO LOPEZ               0000000000000000000001DOMICILIACION                           00                     
020000227300100000000010000020250512                        51202505120124000012180014975634188ISRAEL ALEJANDRO ESTRADA MARTINEZ       3300096323000004320230711175127896800000ISRAEL ALEJANDRO ESTRADA MARTINEZ       0000000000000000000001DOMICILIACION                           00                     
020000228300100000000005000020250512                        51202505120124000012420015298079341DAVID MANUEL GARCIA BORBOA              3300711831000008720230718145443357000000DAVID MANUEL GARCIA BORBOA              0000000000000000000001DOMICILIACION                           00                     
020000229300100000000030000020250512                        51202505120124000012180012554831582ROLANDO EFRAIN HERNANDEZ MUNOZ          2680015821000004320230808162442246300000ROLANDO EFRAIN HERNANDEZ MUNOZ          0000000000000000000001DOMICILIACION                           00                     
020000230300100000000020000020250512                        51202505120124000012180015557270176EDUARDO FLORES HERRERA                  3200239969000003720231011123715328000000EDUARDO FLORES HERRERA                  0000000000000000000001DOMICILIACION                           00                     
020000231300100000000005000020250512                        51202505120124000012813011448524354VICTOR HUGO AGUILLON AGUILAR            3202606219000007120231107114918501700000VICTOR HUGO AGUILLON AGUILAR            0000000000000000000001DOMICILIACION                           00                     
020000232300100000000003000020250512                        51202505120120300004815163064342663NORA AIMEE VELASCO ARELLANO             6030004768000006920231109201918641000000NORA AIMEE VELASCO ARELLANO             0000000000000000000001DOMICILIACION                           00                     
020000233300100000000001000020250512                        51202505120120300004152314044534009ABRAHAM BENITEZ ROMERO                  6449092769000007320231109193756628200000ABRAHAM BENITEZ ROMERO                  0000000000000000000001DOMICILIACION                           00                     
020000234300100000000005000020250512                        51202505120124000012180011121757113AGUSTIN DE JESUS ROSAS                  6449110066000007320231106155107941000000AGUSTIN DE JESUS ROSAS                  0000000000000000000001DOMICILIACION                           00                     
020000235300100000000003000020250512                        51202505120120300004815163013774529ARMANDO RODRIGUEZ PADILLA               3200356232000008120231005155719781300000ARMANDO RODRIGUEZ PADILLA               0000000000000000000001DOMICILIACION                           00                     
020000236300100000000005000020250512                        51202505120124000012180027959503688DANIEL NOE VAZQUEZ MIRANDA              2140042977000007620231106220103155800000DANIEL NOE VAZQUEZ MIRANDA              0000000000000000000001DOMICILIACION                           00                     
020000237300100000000004000020250512                        51202505120124000012690011586961872ANA LAURA MORALES CRUZ                  3201681504000007620231101103200486200000ANA LAURA MORALES CRUZ                  0000000000000000000001DOMICILIACION                           00                     
020000238300100000000005000020250512                        51202505120120300004152313812428428GUADALUPE INES RAMOS SEBASTIAN          3300884312000014620231013122004562800000GUADALUPE INES RAMOS SEBASTIAN          0000000000000000000001DOMICILIACION                           00                     
020000239300100000000025000020250512                        51202505120124000012180004524800771MARIA JOSEFA BERNAD BERNAD              3200699266000007520231020140200207400000MARIA JOSEFA BERNAD BERNAD              0000000000000000000001DOMICILIACION                           00                     
020000240300100000000001000020250512                        51202505120120300004152313514083810ISIDRO GILBERTO HERNANDEZ CARDENAS      6449057513000007520231023115650050700000ISIDRO GILBERTO HERNANDEZ CARDENAS      0000000000000000000001DOMICILIACION                           00                     
020000241300100000000004000020250512                        51202505120120300004152313732018150VICTOR HUGO BRISENO HERNANDEZ           3200700388000008120231023135446209100000VICTOR HUGO BRISENO HERNANDEZ           0000000000000000000001DOMICILIACION                           00                     
020000242300100000000001000020250512                        51202505120124000012680015783399224JESUS HERNANDEZ REYES                   3300107400000003720231108175011764200000JESUS HERNANDEZ REYES                   0000000000000000000001DOMICILIACION                           00                     
020000243300100000000007500020250512                        51202505120120300004152313495270188KEYLA ABIGAIL FLORES SANTES             6442057639000010820230223183726830400000KEYLA ABIGAIL FLORES SANTES             0000000000000000000001DOMICILIACION                           00                     
020000244300100000000001000020250512                        51202505120124000012663015844577656LUIS ENRIQUE LEON LOPEZ                 3300811030000011020230211133349910200000LUIS ENRIQUE LEON LOPEZ                 0000000000000000000001DOMICILIACION                           00                     
020000245300100000000005000020250512                        51202505120120300004152314066381636NICOLAS CUEVAS ABURTO                   3400892985000005320230324004733564300000NICOLAS CUEVAS ABURTO                   0000000000000000000001DOMICILIACION                           00                     
020000246300100000000010000020250512                        51202505120124000012180026079545572ROBERTO RODRIGUEZ GARFIAS               3200215699000005220230324185047111600000ROBERTO RODRIGUEZ GARFIAS               0000000000000000000001DOMICILIACION                           00                     
020000247300100000000004000020250512                        51202505120120300004152313754511884ISRAEL NOE SALGADO                      3201617727000007120231122221958713800000ISRAEL NOE SALGADO                      0000000000000000000001DOMICILIACION                           00                     
020000248300100000000002000020250512                        51202505120120300004152314079942507IVAN JESUS ALPUCHE GARCIA               6442044791000006920231202122406608600000IVAN JESUS ALPUCHE GARCIA               0000000000000000000001DOMICILIACION                           00                     
020000249300100000000002000020250512                        51202505120124000012320027489346654MARISOL GUTIERREZ ALCAZAR               3202276185000004520231120213439061000000MARISOL GUTIERREZ ALCAZAR               0000000000000000000001DOMICILIACION                           00                     
020000250300100000000002000020250512                        51202505120120300004152313705199094CARLOS ENRIQUE QUINONEZ GONZALEZ        3200477923000006920231206175620338300000CARLOS ENRIQUE QUINONEZ GONZALEZ        0000000000000000000001DOMICILIACION                           00                     
020000251300100000000002000020250512                        51202505120124000012180015044376936ADRIAN GUSTAVO MAGANA PALMA             3202067668000006920231207214255222200000ADRIAN GUSTAVO MAGANA PALMA             0000000000000000000001DOMICILIACION                           00                     
020000252300100000000001000020250512                        51202505120124000012180015896066504MONTSERRAT ALEJANDRA LUNA GARCIA        3300862035000006920231206160243239600000MONTSERRAT ALEJANDRA LUNA GARCIA        0000000000000000000001DOMICILIACION                           00                     
020000253300100000000001000020250512                        51202505120124000012320014666845648MARIO ALBERTO VILLEGAS ORTIZ            3202603471000003620231103131701716300000MARIO ALBERTO VILLEGAS ORTIZ            0000000000000000000001DOMICILIACION                           00                     
020000254300100000000003000020250512                        51202505120124000012180026132113715OSCAR OCTAVIANO PIMENTEL VELAZQUEZ      3202593626000007420231025105326627900000OSCAR OCTAVIANO PIMENTEL VELAZQUEZ      0000000000000000000001DOMICILIACION                           00                     
020000255300100000000001000020250512                        51202505120124000012320011087803660ANA BELINA CHAVIRA RAMIREZ              3202600607000007420231031114146807400000ANA BELINA CHAVIRA RAMIREZ              0000000000000000000001DOMICILIACION                           00                     
020000256300100000000002000020250512                        51202505120124000012320011530317726MALITZIN CORRALES LOPEZ                 3202599442000007320231028173637678800000MALITZIN CORRALES LOPEZ                 0000000000000000000001DOMICILIACION                           00                     
020000257300100000000004000020250512                        51202505120120300004152314011762112EDGAR ALEJANDRO VAZQUEZ QUIROZ          6451872702000003720231012215122281900000EDGAR ALEJANDRO VAZQUEZ QUIROZ          0000000000000000000001DOMICILIACION                           00                     
020000258300100000000002000020250512                        51202505120124000012540011391959394CELIA BEATRIZ HERRERA ZAMBRANO          3202600500000007320231031111428774400000CELIA BEATRIZ HERRERA ZAMBRANO          0000000000000000000001DOMICILIACION                           00                     
020000259300100000000005000020250512                        51202505120120300004152313893906854MIREYA LOPEZ PEREZ NEGRON               3202471951000003720231107201827027900000MIREYA LOPEZ PEREZ NEGRON               0000000000000000000001DOMICILIACION                           00                     
020000260300100000000005000020250512                        51202505120120300004152313607878845OSCAR GALINDO DIAZ DE LEON              3300409037000007320231028202945697900000OSCAR GALINDO DIAZ DE LEON              0000000000000000000001DOMICILIACION                           00                     
020000261300100000000002000020250512                        51202505120124000012180015926358140DANIEL BARBOSA SOLORIO                  3202600693000003820231031122204855300000DANIEL BARBOSA SOLORIO                  0000000000000000000001DOMICILIACION                           00                     
020000262300100000000002000020250512                        51202505120120300004152314032791587ARACELI RAMIREZ NAVARRETE               3202567303000007520231012150845107200000ARACELI RAMIREZ NAVARRETE               0000000000000000000001DOMICILIACION                           00                     
020000263300100000000002000020250512                        51202505120120300004152313716669606JOJAN JOSUE CORREA LOPEZ                3300832565000019420230413174206347100000JOJAN JOSUE CORREA LOPEZ                0000000000000000000001DOMICILIACION                           00                     
020000264300100000000007000020250512                        51202505120124000012180028386495371ROBERTO ENRIQUE JIMENEZ RAMIREZ         3400255662000010020230412170049567500000ROBERTO ENRIQUE JIMENEZ RAMIREZ         0000000000000000000001DOMICILIACION                           00                     
020000265300100000000015000020250512                        51202505120124000012180015100416918AARON JAIR MARTINEZ GARCIA              3401014816000004320230801101929680700000AARON JAIR MARTINEZ GARCIA              0000000000000000000001DOMICILIACION                           00                     
020000266300100000000015000020250512                        51202505120124000012540004650809833OLGA SAMANO BOTELLO                     3202306857000008520230727111449072400000OLGA SAMANO BOTELLO                     0000000000000000000001DOMICILIACION                           00                     
020000267300100000000002000020250512                        51202505120120300004815163079941038KARLA MAYELA FRANCO TORRES              6442206411000008520230727155702646400000KARLA MAYELA FRANCO TORRES              0000000000000000000001DOMICILIACION                           00                     
020000268300100000000010000020250512                        51202505120124000012180015601231139CARLOS ROSAS OSORIO                     3400008929000008820230724122716160900000CARLOS ROSAS OSORIO                     0000000000000000000001DOMICILIACION                           00                     
020000269300100000000005000020250512                        51202505120120300004152313816416486LUZ ELENA URBINA ARRONTE                3202486632000008320230811142308225300000LUZ ELENA URBINA ARRONTE                0000000000000000000001DOMICILIACION                           00                     
020000270300100000000025000020250512                        51202505120124000012180004456232941PLINIO JESUS SOSA FERNANDEZ             3200537951000008520230811134500196600000PLINIO JESUS SOSA FERNANDEZ             0000000000000000000001DOMICILIACION                           00                     
020000271300100000000001500020250512                        51202505120120300004152313924725141DANNA FERNANDA ACEVEDO AVILA            3300808702000004320230725202720086800000DANNA FERNANDA ACEVEDO AVILA            0000000000000000000001DOMICILIACION                           00                     
020000272300100000000003000020250512                        51202505120120300004152313954558859MARIEL RUIZ FAJARDO                     3300866655000007120230805181001779500000MARIEL RUIZ FAJARDO                     0000000000000000000001DOMICILIACION                           00                     
020000273300100000000001000020250512                        51202505120120300004815163096840312BRENDA DEL CARMEN GUTIERREZ VELAZQUEZ   3300866283000008520230804093547119800000BRENDA DEL CARMEN GUTIERREZ VELAZQUEZ   0000000000000000000001DOMICILIACION                           00                     
020000274300100000000002000020250512                        51202505120124000012180026899841359SARAI PEREZ GARCIA                      3202491495000007520231012085239753200000SARAI PEREZ GARCIA                      0000000000000000000001DOMICILIACION                           00                     
020000275300100000000010000020250512                        51202505120124000012854027726207825IRIS VIANEY RAMIREZ RUIZ                3201922478000007320231025230713162200000IRIS VIANEY RAMIREZ RUIZ                0000000000000000000001DOMICILIACION                           00                     
020000276300100000000003000020250512                        51202505120120300004815163073007356LORENA PEREZ LOERA                      6449091489000005920230929135102905200000LORENA PEREZ LOERA                      0000000000000000000001DOMICILIACION                           00                     
020000277300100000000010000020250512                        51202505120124000012180011025518539MARTIN BARCENAS ESCOBAR                 3200137304000007720230929160031981000000MARTIN BARCENAS ESCOBAR                 0000000000000000000001DOMICILIACION                           00                     
020000278300100000000001000020250512                        51202505120124000012320028723759906SUYIM EMILIA ORTEGA GONZALEZ            3202599401000007320231028135540649200000SUYIM EMILIA ORTEGA GONZALEZ            0000000000000000000001DOMICILIACION                           00                     
020000279300100000000001000020250512                        51202505120124000012580011184068203SANJUANA GUADALUPE QUINTERO MARTINEZ    3202603240000007620231103183938909300000SANJUANA GUADALUPE QUINTERO MARTINEZ    0000000000000000000001DOMICILIACION                           00                     
020000280300100000000003000020250512                        51202505120124000012180015425949814ALEJANDRA REYES MARURI                  3200563944000009520230518133435710400000ALEJANDRA REYES MARURI                  0000000000000000000001DOMICILIACION                           00                     
020000281300100000000006000020250512                        51202505120124000012180014173770297SUSANA OCHOTERENA BOOTH                 3201311237000004720230511185112143200000SUSANA OCHOTERENA BOOTH                 0000000000000000000001DOMICILIACION                           00                     
020000282300100000000005000020250512                        51202505120124000012680015463778589ALEJANDRO GOMEZ CALDERON                3300490886000009520230518172738871800000ALEJANDRO GOMEZ CALDERON                0000000000000000000001DOMICILIACION                           00                     
020000283300100000000002000020250512                        51202505120124000012320015649910654JOSEFINA BEATRIZ CUEVA VILLASANA        3201986841000005020230416104942194000000JOSEFINA BEATRIZ CUEVA VILLASANA        0000000000000000000001DOMICILIACION                           00                     
020000284300100000000015000020250512                        51202505120120300004152313462746020MA. ISABEL TOMATZIN VALLE               3200699548000010120230505130344425800000MA. ISABEL TOMATZIN VALLE               0000000000000000000001DOMICILIACION                           00                     
020000285300100000000002000020250512                        51202505120124000012180004733466171FABIOLA DE LA ROSA TORRES               3200480944000005520230407193819273200000FABIOLA DE LA ROSA TORRES               0000000000000000000001DOMICILIACION                           00                     
020000286300100000000002000020250512                        51202505120120300004815163092581811MAYRA ELIZABETH SANCHEZ CAMPA           3202122883000010320230328153252449800000MAYRA ELIZABETH SANCHEZ CAMPA           0000000000000000000001DOMICILIACION                           00                     
020000287300100000000002500020250512                        51202505120124000012560012911487102DABIR EFREN TALAMANTES VALDEZ           3200601593000009920230421203815773900000DABIR EFREN TALAMANTES VALDEZ           0000000000000000000001DOMICILIACION                           00                     
020000288300100000000001000020250512                        51202505120124000012180015392327530SADAI REQUENES MARTINEZ                 3400087444000004920230807142633352200000SADAI REQUENES MARTINEZ                 0000000000000000000001DOMICILIACION                           00                     
020000289300100000000001000020250512                        51202505120120300004152313956031889CRISTINA ALELI HERNANDEZ SALAZAR        3202489955000008720230714144850673500000CRISTINA ALELI HERNANDEZ SALAZAR        0000000000000000000001DOMICILIACION                           00                     
020000290300100000000001000020250512                        51202505120120300004152313828996913JORGE ALBERTO SIERRA AVILA              3202528012000008520230804154145519500000JORGE ALBERTO SIERRA AVILA              0000000000000000000001DOMICILIACION                           00                     
020000291300100000000002500020250512                        51202505120124000012180029737566968OMAR CASTILLO DOMINGUEZ                 3202145426000008720230809130447809000000OMAR CASTILLO DOMINGUEZ                 0000000000000000000001DOMICILIACION                           00                     
020000292300100000000005000020250512                        51202505120124000012180029695930717JOSE EDUARDO VIEYRA HERNANDEZ           6449073307000008520230808120333987500000JOSE EDUARDO VIEYRA HERNANDEZ           0000000000000000000001DOMICILIACION                           00                     
020000293300100000000001000020250512                        51202505120124000012610015052923184ALEJO REYES REYES                       3202525641000004520230801184355211300000ALEJO REYES REYES                       0000000000000000000001DOMICILIACION                           00                     
020000294300100000000001000020250512                        51202505120124000012180014935224156ARACELI GUTIERREZ HERNANDEZ             3202516084000004320230802154922980800000ARACELI GUTIERREZ HERNANDEZ             0000000000000000000001DOMICILIACION                           00                     
020000295300100000000001000020250512                        51202505120124000012180011308950322SANDRA CERVANTES HUESCA                 3202523920000008520230729115123586900000SANDRA CERVANTES HUESCA                 0000000000000000000001DOMICILIACION                           00                     
020000296300100000000001500020250512                        51202505120120300004152314213984472IRANDI ZACBE LOPEZ LAGUNAS              3300813396000007020231115003555324100000IRANDI ZACBE LOPEZ LAGUNAS              0000000000000000000001DOMICILIACION                           00                     
020000297300100000000001000020250512                        51202505120120300004152314145336932IBET NAVARRO REYES                      3202539656000007120231115120051629500000IBET NAVARRO REYES                      0000000000000000000001DOMICILIACION                           00                     
020000298300100000000001000020250512                        51202505120124000012700027445517102ARELI ELIZABETH MARTINEZ ACEVEDO        3200162350000003520231201193414476900000ARELI ELIZABETH MARTINEZ ACEVEDO        0000000000000000000001DOMICILIACION                           00                     
020000299300100000000001000020250512                        51202505120120300004152313902283212DESIREE SARAHY ALVARADO CARRASCO        3300896011000007320231129144313762600000DESIREE SARAHY ALVARADO CARRASCO        0000000000000000000001DOMICILIACION                           00                     
020000300300100000000002500020250512                        51202505120124000012180028846593179NELLY LOPEZ VALDEZ                      3202615855000007120231116115807388200000NELLY LOPEZ VALDEZ                      0000000000000000000001DOMICILIACION                           00                     
020000301300100000000001000020250512                        51202505120124000012180027651120369ANGELICA HERNANDEZ GUERRERO             3202605137000007220231110104812874100000ANGELICA HERNANDEZ GUERRERO             0000000000000000000001DOMICILIACION                           00                     
020000302300100000000001000020250512                        51202505120124000012680011502238832LUIS MANUEL GONZALEZ SANCHEZ            3202624593000006920231128111946664700000LUIS MANUEL GONZALEZ SANCHEZ            0000000000000000000001DOMICILIACION                           00                     
020000303300100000000001000020250512                        51202505120120300004152313816160183MARIA DE LOS ANGELES AMARO LOZANO       3202509562000008720230725181925040500000MARIA DE LOS ANGELES AMARO LOZANO       0000000000000000000001DOMICILIACION                           00                     
020000304300100000000002000020250512                        51202505120124000012660028357877341ISAAC PALILLERO PEREZ                   3202511079000008820230714125345581600000ISAAC PALILLERO PEREZ                   0000000000000000000001DOMICILIACION                           00                     
020000305300100000000004000020250512                        51202505120120300004152313816006501MARIA ANTONIA SANCHEZ TORRES            3202411189000008520230309134053468600000MARIA ANTONIA SANCHEZ TORRES            0000000000000000000001DOMICILIACION                           00                     
020000306300100000000001000020250512                        51202505120120300004152313497428040ROCIO ORTIZ MATEHUALA                   3202453225000008620230505143542519000000ROCIO ORTIZ MATEHUALA                   0000000000000000000001DOMICILIACION                           00                     
020000307300100000000001000020250512                        51202505120120300004152314035527483MARISOL GUTIERREZ ALCAZAR               3202276185000008520230201155555445300000MARISOL GUTIERREZ ALCAZAR               0000000000000000000001DOMICILIACION                           00                     
020000308300100000000002000020250512                        51202505120124000012180015804497589DOLORES MARTINEZ HERNANDEZ              6449122534000007120231110181301313900000DOLORES MARTINEZ HERNANDEZ              0000000000000000000001DOMICILIACION                           00                     
020000309300100000000001000020250512                        51202505120120300004152313677207032DIANA ROMAN LEON                        3300893857000007020231121170605726700000DIANA ROMAN LEON                        0000000000000000000001DOMICILIACION                           00                     
020000310300100000000001000020250512                        51202505120124000012874012351507600PABLO DOMINGUEZ HUESCA                  3202627187000007020231130133144439500000PABLO DOMINGUEZ HUESCA                  0000000000000000000001DOMICILIACION                           00                     
020000311300100000000004000020250512                        51202505120120300004152313802856729ELISA MEDRANO HERNANDEZ                 6442072050000003520231116123556463800000ELISA MEDRANO HERNANDEZ                 0000000000000000000001DOMICILIACION                           00                     
020000312300100000000001000020250512                        51202505120120300004152313654244107MARIA DE LOURDES RODRIGUEZ NIETO        3202392715000008420230208140030384900000MARIA DE LOURDES RODRIGUEZ NIETO        0000000000000000000001DOMICILIACION                           00                     
020000313300100000000010000020250512                        51202505120124000012180027088774401IVONNE ASCONA HIDALGO                   1530045043000008720230715220348971900000IVONNE ASCONA HIDALGO                   0000000000000000000001DOMICILIACION                           00                     
020000314300100000000001000020250512                        51202505120124000012180027651393332YAZMIN HITNE HERNANDEZ GARCIA           3202500694000009020230704113215059100000YAZMIN HITNE HERNANDEZ GARCIA           0000000000000000000001DOMICILIACION                           00                     
020000315300100000000001000020250512                        51202505120124000012215029539328936RICARDO GOMEZ SALGADO                   3202457631000008520230512100528362200000RICARDO GOMEZ SALGADO                   0000000000000000000001DOMICILIACION                           00                     
020000316300100000000002000020250512                        51202505120124000012180015483651597ERIC GONZALEZ ELIZARRARAZ               3202340427000008620230224120525112400000ERIC GONZALEZ ELIZARRARAZ               0000000000000000000001DOMICILIACION                           00                     
020000317300100000000001000020250512                        51202505120120300004152313623421026ZILA ARABELLA LOPEZ PEREZ               3202518770000008320230728183955429900000ZILA ARABELLA LOPEZ PEREZ               0000000000000000000001DOMICILIACION                           00                     
020000318300100000000001000020250512                        51202505120120300004152313595945473SELENA GUADALUPE RODRIGUEZ GOMEZ        3300856335000005320230630101647421600000SELENA GUADALUPE RODRIGUEZ GOMEZ        0000000000000000000001DOMICILIACION                           00                     
020000319300100000000003000020250512                        51202505120124000012180011641439225ERNESTO ESPINOSA VARGAS                 3202269271000008520230726144355542500000ERNESTO ESPINOSA VARGAS                 0000000000000000000001DOMICILIACION                           00                     
020000320300100000000001000020250512                        51202505120120300004152313898963629IVAN ADOLFO RUFINO CORRALEJO            3300890982000007120231110150032200800000IVAN ADOLFO RUFINO CORRALEJO            0000000000000000000001DOMICILIACION                           00                     
020000321300100000000001000020250512                        51202505120124000012180015247025864FELIPE GOMEZ PINEDA                     3300896256000006920231130120307336000000FELIPE GOMEZ PINEDA                     0000000000000000000001DOMICILIACION                           00                     
020000322300100000000030000020250512                        51202505120124000012180004431972718DAVID CRUZ ROBLES                       3202092895000004520230705131121861100000DAVID CRUZ ROBLES                       0000000000000000000001DOMICILIACION                           00                     
020000323300100000000010000020250512                        51202505120124000012180011771995037BEATRIZ VELASCO CASTELAN                2740004975000004320230723120656775200000BEATRIZ VELASCO CASTELAN                0000000000000000000001DOMICILIACION                           00                     
020000324300100000000001000020250512                        51202505120120300004152313655353618MARIO EDUARDO OLVERA ORTIZ              3300866058000009920230803143812752200000MARIO EDUARDO OLVERA ORTIZ              0000000000000000000001DOMICILIACION                           00                     
020000325300100000000001000020250512                        51202505120124000012180015065092121KARINA HERNANDEZ DELGADO                3202423932000008620230325135415243700000KARINA HERNANDEZ DELGADO                0000000000000000000001DOMICILIACION                           00                     
020000326300100000000002000020250512                        51202505120124000012650014303571974IRMA BARBOSA SERRANO                    3202399179000008720230217100323280100000IRMA BARBOSA SERRANO                    0000000000000000000001DOMICILIACION                           00                     
020000327300100000000001000020250512                        51202505120120300004152313896218224DAY NIZ SAGRARIO CRUZ RICO              3202385452000008620230202133233943300000DAY NIZ SAGRARIO CRUZ RICO              0000000000000000000001DOMICILIACION                           00                     
020000328300100000000014880020250512                        51202505120124000012180027320236872SERGIO GARNICA GONZALEZ                 3202459583000008320230728065418897400000SERGIO GARNICA GONZALEZ                 0000000000000000000001DOMICILIACION                           00                     
020000329300100000000010000020250512                        51202505120124000012180029757279950GUILLERMO VELEZ MELENDEZ                0200055104000004320230713112902898800000GUILLERMO VELEZ MELENDEZ                0000000000000000000001DOMICILIACION                           00                     
020000330300100000000005000020250512                        51202505120124000012886014962637476MANUEL GUADALUPE HERNANDEZ BENAVIDES    6449057441000008520230726202554746400000MANUEL GUADALUPE HERNANDEZ BENAVIDES    0000000000000000000001DOMICILIACION                           00                     
020000331300100000000002000020250512                        51202505120124000012180015314653389ANTONIO VALGANON FLORES                 1970024441000004720230517090738735500000ANTONIO VALGANON FLORES                 0000000000000000000001DOMICILIACION                           00                     
020000332300100000000001000020250512                        51202505120124000012060014297795744MARICRUZ GOMEZ RODRIGUEZ                3202147953000009520230516125448344000000MARICRUZ GOMEZ RODRIGUEZ                0000000000000000000001DOMICILIACION                           00                     
