01000000130012E21200011202505120100                         PROFUTURO AFORE SA DE CV                PGA-961220PB4                                                                                                                                                                                           
020000002300100000000001000020250512                        51202505120020300005204165958180998ITZEL DESIREE ACOSTA PEREZ              3201803953000005620240402153747746700000ITZEL DESIREE ACOSTA PEREZ              0000000000000000000001DOMICILIACION                           00                     
020000003300100000000003000020250512                        51202505120024000002790902212012988MARCELA CARDOZA CORNELIO                3202463112000005520240331215256944600000MARCELA CARDOZA CORNELIO                0000000000000000000001DOMICILIACION                           00                     
0900000043012000110000002000000000000040000                                                                                                                                                                                                                                                                 
