01000000130012E21200010202505120100                         PROFUTURO AFORE SA DE CV                PGA-961220PB4                                                                                                                                                                                           
020000002300100000000001000020250512                        51202505120140300005579100241009404JOSE MARTINEZ SEGUNDO                   3202201673000002520240501182329462800000JOSE MARTINEZ SEGUNDO                   0000000000000000000001DOMICILIACION                           00                     
020000003300100000000001000020250512                        51202505120424000042180010009028333HEIDI COLIN GONZALEZ                    3202734534000005620240322180759343100000HEIDI COLIN GONZALEZ                    0000000000000000000001DOMICILIACION                           00                     
020000004300100000000001000020250512                        51202505120720300004189143076169831EDUARDO LOPEZ DAVILA                    2930004386000005620240403162544009800000EDUARDO LOPEZ DAVILA                    0000000000000000000001DOMICILIACION                           00                     
020000005300100000000001000020250512                        51202505121364000136180019597100117CARLOS ALBERTO AGUILAR VIQUEZ           3201510237000039820210720182730404200000CARLOS ALBERTO AGUILAR VIQUEZ           0000000000000000000001DOMICILIACION                           00                     
020000006300100000000002000020250512                        51202505120444000044180001065113642ADRIANA ARACELI DIAZ RODRIGUEZ          3202719528000005920240307152928802800000ADRIANA ARACELI DIAZ RODRIGUEZ          0000000000000000000001DOMICILIACION                           00                     
020000007300100000000002000020250512                        51202505120144000014180605842744233AYMEE MORALES MARTINEZ                  3202438911000003120240326201525354600000AYMEE MORALES MARTINEZ                  0000000000000000000001DOMICILIACION                           00                     
020000008300100000000003000020250512                        51202505120024000002790902212012988MARCELA CARDOZA CORNELIO                3202463112000005520240331215256944600000MARCELA CARDOZA CORNELIO                0000000000000000000001DOMICILIACION                           00                     
020000009300100000000005000020250512                        51202505120440300004043130015432962JOANNA MARGARITA CLAUDIO SAENZ          3401037842000005620240403081157335800000JOANNA MARGARITA CLAUDIO SAENZ          0000000000000000000001DOMICILIACION                           00                     
020000010300100000000001000020250512                        51202505120140300005579100245681018ROCIO ELIZABETH ZAPATA VARGAS           3202737385000005220240326161953212400000ROCIO ELIZABETH ZAPATA VARGAS           0000000000000000000001DOMICILIACION                           00                     
020000011300100000000003000020250512                        51202505120140300005579100341848677JUAN CARLOS GARCIA CAZALES              3202597953000005520240329142139602200000JUAN CARLOS GARCIA CAZALES              0000000000000000000001DOMICILIACION                           00                     
020000012300100000000001000020250512                        51202505120020300005204165958180998ITZEL DESIREE ACOSTA PEREZ              3201803953000005620240402153747746700000ITZEL DESIREE ACOSTA PEREZ              0000000000000000000001DOMICILIACION                           00                     
020000013300100000000005350020250512                        51202505120144000014078606232716487ANA KARENT ESTRELLA CAZARES             3200273622000005420240403110323591400000ANA KARENT ESTRELLA CAZARES             0000000000000000000001DOMICILIACION                           00                     
020000014300100000000005000020250512                        51202505120210300004213169308587185JUAN SEBASTIAN MIRANDA GOMEZ            3202713792000006620240302101322102800000JUAN SEBASTIAN MIRANDA GOMEZ            0000000000000000000001DOMICILIACION                           00                     
020000015300100000000007500020250512                        51202505120210300004213166152141366JULIAN ZALETA CASADOS                   3202337549000009320230715105515874300000JULIAN ZALETA CASADOS                   0000000000000000000001DOMICILIACION                           00                     
020000016300100000000005000020250512                        51202505120210300004213166158780373HERMELINDA DEL SOCORRO GONGORA SALAZAR  3202702976000005820240305134720932500000HERMELINDA DEL SOCORRO GONGORA SALAZAR  0000000000000000000001DOMICILIACION                           00                     
020000017300100000000001000020250512                        51202505120140300005579100366891313ALAN CUAHUTEMOC SALMERON HERNANDEZ      3300916886000005620240308105916286800000ALAN CUAHUTEMOC SALMERON HERNANDEZ      0000000000000000000001DOMICILIACION                           00                     
020000018300100000000005000020250512                        51202505120144000014320568670520241ANGELES NALLELY ESPINOSA FIGUEROA       3200978359000005520240328111116319900000ANGELES NALLELY ESPINOSA FIGUEROA       0000000000000000000001DOMICILIACION                           00                     
020000019300100000000001000020250512                        51202505120214000021180065683361301REBECA ALEJANDRA VELASCO ALQUICIRA      3202716520000003120240305170649152900000REBECA ALEJANDRA VELASCO ALQUICIRA      0000000000000000000001DOMICILIACION                           00                     
020000020300100000000010000020250512                        51202505120210300004830304504053756ROSAURA ISABEL PADILLA LEZAMA           3202707573000005820240226144939368700000ROSAURA ISABEL PADILLA LEZAMA           0000000000000000000001DOMICILIACION                           00                     
020000021300100000000005000020250512                        51202505120444000044180256004887072ROQUE IVAN MARTINEZ MONTERO             3300488145000009220210616203020170400000ROQUE IVAN MARTINEZ MONTERO             0000000000000000000001DOMICILIACION                           00                     
020000022300100000000002000020250512                        51202505120720300004915668418886057FABIOLA ESTRADA HERNANDEZ               6449049071000004920240508153600965600000FABIOLA ESTRADA HERNANDEZ               0000000000000000000001DOMICILIACION                           00                     
0900000233012000100000021000000000000678500                                                                                                                                                                                                                                                                 
