01000000130012E21200006202505120100                         PROFUTURO AFORE SA DE CV                PGA-961220PB4                                                                                                                                                                                           
020000002300100000000001000020250512                        51202505120020300005256782785268395ANTONIO APARICIO PEREZ                  3201503622000018420210715200222278100000ANTONIO APARICIO PEREZ                  0000000000000000000001DOMICILIACION                           00                     
020000003300100000000002000020250512                        51202505120024000002680901748295856MELITA TREJO GUZMAN                     3200598262000009720210413103942078500000MELITA TREJO GUZMAN                     0000000000000000000001DOMICILIACION                           00                     
020000004300100000000002500020250512                        51202505120024000002180900916579876ANA TERESA PERALTA MUNOZ                3200177546000020520210128141127103200000ANA TERESA PERALTA MUNOZ                0000000000000000000001DOMICILIACION                           00                     
020000005300100000000002000020250512                        51202505120024000002180701147571509HUGO RAFAEL MINO HERNANDEZ              3201023882000021120201218113039122400000HUGO RAFAEL MINO HERNANDEZ              0000000000000000000001DOMICILIACION                           00                     
020000006300100000000002000020250512                        51202505120020300005256788125637595LORENZA ORDONEZ CASTILLO                3201026887000021020201214210701430900000LORENZA ORDONEZ CASTILLO                0000000000000000000001DOMICILIACION                           00                     
020000007300100000000001000020250512                        51202505120020300005256782161209591VICTOR HUGO SANTOS BARRERA              3201259072000019820210408115211176800000VICTOR HUGO SANTOS BARRERA              0000000000000000000001DOMICILIACION                           00                     
020000008300100000000003000020250512                        51202505120024000002180902803497975JOSE DAVID FLORES GUTIERREZ             1530044751000015120210128085500019600000JOSE DAVID FLORES GUTIERREZ             0000000000000000000001DOMICILIACION                           00                     
020000009300100000000002000020250512                        51202505120024000002180701118385164ROBERTO YAIR SANCHEZ LICONA             3201283922000020720210415185722254900000ROBERTO YAIR SANCHEZ LICONA             0000000000000000000001DOMICILIACION                           00                     
020000010300100000000005000020250512                        51202505120024000002180903471655216ANTONIO DE JESUS TEJEDA MEJIA           3201245372000008920210815091035030100000ANTONIO DE JESUS TEJEDA MEJIA           0000000000000000000001DOMICILIACION                           00                     
020000011300100000000010000020250512                        51202505120024000002180904342109243NEFTALI MORALES LOYOLA                  3201106807000020320210129170944491200000NEFTALI MORALES LOYOLA                  0000000000000000000001DOMICILIACION                           00                     
020000012300100000000002000020250512                        51202505120020300005204167397291899DIANA LAURA CERVANTES CARDENAS          3201343232000019220210513143309556400000DIANA LAURA CERVANTES CARDENAS          0000000000000000000001DOMICILIACION                           00                     
020000013300100000000010000020250512                        51202505120024000002180902149197447JUAN ANTONIO CASTILLO ESTRADA           3200260509000020520210128170625189700000JUAN ANTONIO CASTILLO ESTRADA           0000000000000000000001DOMICILIACION                           00                     
020000014300100000000001500020250512                        51202505120024000002180700130021245DIANA MARIA DEL CARMEN FUENTES HURTADO  1170049017000020720210122133400460000000DIANA MARIA DEL CARMEN FUENTES HURTADO  0000000000000000000001DOMICILIACION                           00                     
020000015300100000000004000020250512                        51202505120020300005256782653512395HUGO ARMANDO LANZ CARRILLO              3201271933000026220210412150416125200000HUGO ARMANDO LANZ CARRILLO              0000000000000000000001DOMICILIACION                           00                     
020000016300100000000003000020250512                        51202505120024000002180902458285189LUCIA MORALES POLO                      3201501179000018320210720104019349800000LUCIA MORALES POLO                      0000000000000000000001DOMICILIACION                           00                     
020000017300100000000001000020250512                        51202505120020300005256780060215693JORGE ARTURO GUTIERREZ VASQUEZ          3201445618000018820210624180058156500000JORGE ARTURO GUTIERREZ VASQUEZ          0000000000000000000001DOMICILIACION                           00                     
020000018300100000000001000020250512                        51202505120024000002180700872376465ALEJANDRA VAZQUEZ PINEDA                2530010588000010320210204144017202800000ALEJANDRA VAZQUEZ PINEDA                0000000000000000000001DOMICILIACION                           00                     
020000019300100000000002000020250512                        51202505120024000002150902909286395PEDRO LUIS JACQUEZ GONZALEZ             3201081450000020820210129185832027100000PEDRO LUIS JACQUEZ GONZALEZ             0000000000000000000001DOMICILIACION                           00                     
020000020300100000000010000020250512                        51202505120020300005256781525963992JUAN JOSE CASTELLANOS AGUILAR           3200467761000009220210714161800695300000JUAN JOSE CASTELLANOS AGUILAR           0000000000000000000001DOMICILIACION                           00                     
020000021300100000000004000020250512                        51202505120020300005204167343145199ANDRES ARMEAGA GOMEZ                    3200038431000015120210720200243447400000ANDRES ARMEAGA GOMEZ                    0000000000000000000001DOMICILIACION                           00                     
020000022300100000000001000020250512                        51202505120020300005256783021666590PABLO MOLINA GUERRERO                   3201377935000018320210709172737094200000PABLO MOLINA GUERRERO                   0000000000000000000001DOMICILIACION                           00                     
020000023300100000000001000020250512                        51202505120020300005256781684096592EDGAR DANIEL MORALES OCAMPO             3201486401000018420210712182646737600000EDGAR DANIEL MORALES OCAMPO             0000000000000000000001DOMICILIACION                           00                     
020000024300100000000001000020250512                        51202505120024000002164701600903575TITO MARTINEZ ALVIDREZ                  3300597454000017620210918140019394400000TITO MARTINEZ ALVIDREZ                  0000000000000000000001DOMICILIACION                           00                     
020000025300100000000020000020250512                        51202505120024000002180700044281197LILIANA RAMIREZ FERRUSQUIA              3201087918000010420210123153812054000000LILIANA RAMIREZ FERRUSQUIA              0000000000000000000001DOMICILIACION                           00                     
020000026300100000000001000020250512                        51202505120020300005256782228123991SARAI TORRES CERRILLO                   3300497277000020520210203193750387200000SARAI TORRES CERRILLO                   0000000000000000000001DOMICILIACION                           00                     
020000027300100000000100000020250512                        51202505120020300005256782053316991MARIANA DUQUE RODRIGUEZ                 3200644919000010720210216180726421600000MARIANA DUQUE RODRIGUEZ                 0000000000000000000001DOMICILIACION                           00                     
020000028300100000000010000020250512                        51202505120020300005256782533096494JUAN GARCIA GARCIA                      3200569617000020320210211195248059200000JUAN GARCIA GARCIA                      0000000000000000000001DOMICILIACION                           00                     
020000029300100000000002000020250512                        51202505120020300005256782704282196DAVID ENRIQUE CHE KU                    3200817548000011220200902123404197900000DAVID ENRIQUE CHE KU                    0000000000000000000001DOMICILIACION                           00                     
020000030300100000000002000020250512                        51202505120024000002700700906122101MARCELO BAHENA BALLESTEROS              3200865469000022020201008113455252300000MARCELO BAHENA BALLESTEROS              0000000000000000000001DOMICILIACION                           00                     
020000031300100000000001000020250512                        51202505120020300005256788053864492SUE LOPEZNERIA FERNANDEZ                3201121658000020620210205180730372800000SUE LOPEZNERIA FERNANDEZ                0000000000000000000001DOMICILIACION                           00                     
020000032300100000000005000020250512                        51202505120024000002180027042956372GABRIEL MERIGO BASURTO                  3200595588000021320201203135748394200000GABRIEL MERIGO BASURTO                  0000000000000000000001DOMICILIACION                           00                     
020000033300100000000010000020250512                        51202505120020300005256786062760792CESAR ARIEL MORENO SIFUENTES            3300034453000010120210212112154202800000CESAR ARIEL MORENO SIFUENTES            0000000000000000000001DOMICILIACION                           00                     
020000034300100000000005000020250512                        51202505120024000002650902243184637JOSE BENJAMIN ZAMORA CHAVEZ             3201018845000022120201209192053465200000JOSE BENJAMIN ZAMORA CHAVEZ             0000000000000000000001DOMICILIACION                           00                     
020000035300100000000005000020250512                        51202505120020300005256782059256894JESUS SALVADOR LUCERO ROMERO            3200560364000010820201128123134022200000JESUS SALVADOR LUCERO ROMERO            0000000000000000000001DOMICILIACION                           00                     
020000036300100000000005000020250512                        51202505120024000002180701528591535MARIANA YEBALE CANDELAS                 1700020147000008820210928083015592700000MARIANA YEBALE CANDELAS                 0000000000000000000001DOMICILIACION                           00                     
020000037300100000000002500020250512                        51202505120020300005256788107856098VERONICA ALFARO ROJAS                   3200649759000017520210915222956918900000VERONICA ALFARO ROJAS                   0000000000000000000001DOMICILIACION                           00                     
020000038300100000000005000020250512                        51202505120024000002225700757747359JUAN FRANCISCO MARTINEZ ARZOLA          3300592907000017920210906092753782500000JUAN FRANCISCO MARTINEZ ARZOLA          0000000000000000000001DOMICILIACION                           00                     
020000039300100000000010000020250512                        51202505120020300005256786104588094ROBERTO JAIR RAMIREZ CHAVEZ             3200583073000009520210506160649126400000ROBERTO JAIR RAMIREZ CHAVEZ             0000000000000000000001DOMICILIACION                           00                     
020000040300100000000002000020250512                        51202505120020300005256783398509597AMERICA DEL REFUGIO ALDANA LOPEZ        3201244820000020820210327194643077600000AMERICA DEL REFUGIO ALDANA LOPEZ        0000000000000000000001DOMICILIACION                           00                     
020000041300100000000001000020250512                        51202505120020300005256783330700494GRACIELA NATALI MEJIA TAVIRA            3200859889000021420210223201257425300000GRACIELA NATALI MEJIA TAVIRA            0000000000000000000001DOMICILIACION                           00                     
020000042300100000000010000020250512                        51202505120024000002650902502209949ROMMEL SANCHEZ CRUZ                     6449075250000003320231229122229794100000ROMMEL SANCHEZ CRUZ                     0000000000000000000001DOMICILIACION                           00                     
020000043300100000000009000020250512                        51202505120020300005204167428067896JOSE MARCOS GALEANA GAMA                3000060659000008520230717094046203100000JOSE MARCOS GALEANA GAMA                0000000000000000000001DOMICILIACION                           00                     
020000044300100000000001000020250512                        51202505120024000002671901920299281ANGEL MANUEL DE JESUS PIMENTEL TORRES   3202385717000008520230802180335106100000ANGEL MANUEL DE JESUS PIMENTEL TORRES   0000000000000000000001DOMICILIACION                           00                     
020000045300100000000001000020250512                        51202505120024000002180901164010364JAVIER GARCIA BARRUETA                  3202571301000008020230927141826692600000JAVIER GARCIA BARRUETA                  0000000000000000000001DOMICILIACION                           00                     
020000046300100000000001000020250512                        51202505120024000002882902063484958MONTSERRAT ISELA AGUILAR FACIO          3202583901000007620231011154035514100000MONTSERRAT ISELA AGUILAR FACIO          0000000000000000000001DOMICILIACION                           00                     
020000047300100000000001000020250512                        51202505120020300005256783725744198MAYA MARIANA MONTES SEANEZ              3300879882000004320231104163827091600000MAYA MARIANA MONTES SEANEZ              0000000000000000000001DOMICILIACION                           00                     
020000048300100000000001500020250512                        51202505120024000002680900781630026LUIS ALBERTO CALDERON GONZALEZ          3201209665000007320231103101132493600000LUIS ALBERTO CALDERON GONZALEZ          0000000000000000000001DOMICILIACION                           00                     
020000049300100000000001000020250512                        51202505120024000002180901038068439RICARDO FOSADO ZAMORA                   3202600794000007320231031124959932700000RICARDO FOSADO ZAMORA                   0000000000000000000001DOMICILIACION                           00                     
020000050300100000000001000020250512                        51202505120020300005256783336786398ALMA PATRICIA ROMERO RAMIREZ            3202635016000006720231211160350842000000ALMA PATRICIA ROMERO RAMIREZ            0000000000000000000001DOMICILIACION                           00                     
020000051300100000000006500020250512                        51202505120020300005256783866537591EDGARDO REYNOSO AGUILAR                 3201854857000009720230504084738422400000EDGARDO REYNOSO AGUILAR                 0000000000000000000001DOMICILIACION                           00                     
020000052300100000000001500020250512                        51202505120020300005256783868824195ANA KAREN RESENDIZ ARIAS                3201948761000005320230408203345408300000ANA KAREN RESENDIZ ARIAS                0000000000000000000001DOMICILIACION                           00                     
020000053300100000000002500020250512                        51202505120020300005256784007905796ROBERTO DOMINGUEZ CAZARIN               3202550569000007320231010184805868300000ROBERTO DOMINGUEZ CAZARIN               0000000000000000000001DOMICILIACION                           00                     
020000054300100000000004000020250512                        51202505120024000002180089225617890CYNTHIA ISABEL ZACARIAS VERGARA         2850005415000003320231211180112930800000CYNTHIA ISABEL ZACARIAS VERGARA         0000000000000000000001DOMICILIACION                           00                     
020000055300100000000007500020250512                        51202505120024000002180084422164536KARINA CANARIOS MENDOZA                 6449078749000003520231112201333642800000KARINA CANARIOS MENDOZA                 0000000000000000000001DOMICILIACION                           00                     
020000056300100000000002000020250512                        51202505120020300005256786129423996LAURA BEATRIZ MONTOYA ALVARADO          6449062969000008520230804173908574400000LAURA BEATRIZ MONTOYA ALVARADO          0000000000000000000001DOMICILIACION                           00                     
020000057300100000000001000020250512                        51202505120024000002180902815524137IRVING RIOS MARTINEZ                    3202525157000008320230809135558858100000IRVING RIOS MARTINEZ                    0000000000000000000001DOMICILIACION                           00                     
020000058300100000000005000020250512                        51202505120024000002180701572285855ADRIANA LARA ANGELES                    3300862811000008820230723181651827900000ADRIANA LARA ANGELES                    0000000000000000000001DOMICILIACION                           00                     
020000059300100000000001500020250512                        51202505120020300005256783597982199SALVADOR RODRIGUEZ VAN DYCK             3200743466000009720230502135441319500000SALVADOR RODRIGUEZ VAN DYCK             0000000000000000000001DOMICILIACION                           00                     
020000060300100000000001000020250512                        51202505120020300005256783954740297ALEJANDRO GABRIEL BELENDEZ MIGUEL       3202496689000008520230801123314887600000ALEJANDRO GABRIEL BELENDEZ MIGUEL       0000000000000000000001DOMICILIACION                           00                     
020000061300100000000004000020250512                        51202505120020300005204165704633597NORMA AVILA MARTINEZ                    3300349880000004520230714095211398900000NORMA AVILA MARTINEZ                    0000000000000000000001DOMICILIACION                           00                     
020000062300100000000005000020250512                        51202505120024000002180010561933980RICARDO ALFREDO GONZALEZ FRAGOSO        3200467717000008720230718170550484800000RICARDO ALFREDO GONZALEZ FRAGOSO        0000000000000000000001DOMICILIACION                           00                     
020000063300100000000002000020250512                        51202505120020300005256782923633294FRANCISCO JAVIER MENDOZA CARDENAS       3202458177000009320230512131252668800000FRANCISCO JAVIER MENDOZA CARDENAS       0000000000000000000001DOMICILIACION                           00                     
020000064300100000000006000020250512                        51202505120024000002180904321186135NIMBE PALOMA CERVANTES ESPANA           3200738966000004120230801114829806300000NIMBE PALOMA CERVANTES ESPANA           0000000000000000000001DOMICILIACION                           00                     
020000065300100000000002000020250512                        51202505120024000002290905037645383ALMA DELIA VAZQUEZ GUZMAN               6449132599000006720231205123310177700000ALMA DELIA VAZQUEZ GUZMAN               0000000000000000000001DOMICILIACION                           00                     
020000066300100000000002500020250512                        51202505120024000002560902473732088SILVIA GUTIERREZ RAZO                   6449117725000007120231122185216642300000SILVIA GUTIERREZ RAZO                   0000000000000000000001DOMICILIACION                           00                     
020000067300100000000001000020250512                        51202505120024000002320904768149948EDUARDO DURAN SANCHEZ                   3200539598000003720231129202627001000000EDUARDO DURAN SANCHEZ                   0000000000000000000001DOMICILIACION                           00                     
020000068300100000000007000020250512                        51202505120020300005256786133088298ANABEL CRUZ GOMEZ                       3200601447000005020230414133036786500000ANABEL CRUZ GOMEZ                       0000000000000000000001DOMICILIACION                           00                     
020000069300100000000006000020250512                        51202505120020300005256782584750692DAVID SANTOS BARRIOS                    3201378986000003820231113152340191700000DAVID SANTOS BARRIOS                    0000000000000000000001DOMICILIACION                           00                     
020000070300100000000003000020250512                        51202505120020300005256781997956995MIGUEL ANGEL SANTOS ROMERO              3202601759000003420231201090200864200000MIGUEL ANGEL SANTOS ROMERO              0000000000000000000001DOMICILIACION                           00                     
020000071300100000000010000020250512                        51202505120024000002180701650684734CARLOS JESUS ROMERO PERALTA             6442195010000004520230708110101484400000CARLOS JESUS ROMERO PERALTA             0000000000000000000001DOMICILIACION                           00                     
020000072300100000000001000020250512                        51202505120020300005256783916955397ERNESTO SAUCEDO LOZOYA                  3202516702000008920230721131342223100000ERNESTO SAUCEDO LOZOYA                  0000000000000000000001DOMICILIACION                           00                     
020000073300100000000010000020250512                        51202505120024000002180902909869148MARTHA LETICIA PALAFOX VARGAS           3201628303000009520230724172541393100000MARTHA LETICIA PALAFOX VARGAS           0000000000000000000001DOMICILIACION                           00                     
020000074300100000000001000020250512                        51202505120020300005256784048228695SILVIA REYES RAMIREZ                    3202219341000004320230808222115419900000SILVIA REYES RAMIREZ                    0000000000000000000001DOMICILIACION                           00                     
020000075300100000000002000020250512                        51202505120020300005256783180596992NACHIELLI MEJIA CHAVELAS                3202407757000008520230301135008275700000NACHIELLI MEJIA CHAVELAS                0000000000000000000001DOMICILIACION                           00                     
020000076300100000000003000020250512                        51202505120020300005256786105408490FRANCISCO JAVIER ROBLES OJEDA           1790019905000008520230808130959081200000FRANCISCO JAVIER ROBLES OJEDA           0000000000000000000001DOMICILIACION                           00                     
020000077300100000000001000020250512                        51202505120024000002180903780700140OSVALDO MORENO LOPEZ                    3201252775000008520230801150541053300000OSVALDO MORENO LOPEZ                    0000000000000000000001DOMICILIACION                           00                     
020000078300100000000010000020250512                        51202505120024000002180901540524791ROCIO AVILA MARQUEZ                     3202458274000008520230512164002806700000ROCIO AVILA MARQUEZ                     0000000000000000000001DOMICILIACION                           00                     
020000079300100000000003330020250512                        51202505120024000002730089473325041ERIKA YADIRA MORENO ACOSTA              3202520463000004320230726145408550800000ERIKA YADIRA MORENO ACOSTA              0000000000000000000001DOMICILIACION                           00                     
020000080300100000000001000020250512                        51202505120020300005256783304667596TOMASA GRANADOS SANCHEZ                 3202501893000008920230710191008284900000TOMASA GRANADOS SANCHEZ                 0000000000000000000001DOMICILIACION                           00                     
020000081300100000000001000020250512                        51202505120020300005204165992154793RICARDO PALOMO SANCHEZ                  3202709784000005720240229092630559700000RICARDO PALOMO SANCHEZ                  0000000000000000000001DOMICILIACION                           00                     
020000082300100000000015000020250512                        51202505120024000002180006501157329ALEJANDRO BASURTO SANCHEZ               3200563606000003320240109130721770200000ALEJANDRO BASURTO SANCHEZ               0000000000000000000001DOMICILIACION                           00                     
020000083300100000000001000020250512                        51202505120024000002180904919571657ALAN GONZALEZ SORIANO                   6449044845000005120240409193316596300000ALAN GONZALEZ SORIANO                   0000000000000000000001DOMICILIACION                           00                     
020000084300100000000001700020250512                        51202505120020300005256783343515590BRAYAN RICARDO CARCOBA ROMO             3300658497000002620240410220822468700000BRAYAN RICARDO CARCOBA ROMO             0000000000000000000001DOMICILIACION                           00                     
020000085300100000000005000020250512                        51202505120024000002778039674191400JORGE ALBERTO ZUBIATE MORALES           6449073849000006320240109112216636100000JORGE ALBERTO ZUBIATE MORALES           0000000000000000000001DOMICILIACION                           00                     
020000086300100000000001000020250512                        51202505120024000002580903851547890THALIA ANAHI CANIZALES CUEVAS           3201692080000003020240403221615193100000THALIA ANAHI CANIZALES CUEVAS           0000000000000000000001DOMICILIACION                           00                     
020000087300100000000001000020250512                        51202505120020300005256782928334096KARINA ROLDAN GONZALEZ                  3202733997000005420240325152920341300000KARINA ROLDAN GONZALEZ                  0000000000000000000001DOMICILIACION                           00                     
020000088300100000000002500020250512                        51202505120020300005204165593103397HECTOR ALEXANDRO PALEOLOGOS CARBAJAL    3201463641000006320221101122544963600000HECTOR ALEXANDRO PALEOLOGOS CARBAJAL    0000000000000000000001DOMICILIACION                           00                     
020000089300100000000002000020250512                        51202505120020300005204167399195593LAURA YULISSA PALLARES GARCIA           3300650503000009620211228145604757700000LAURA YULISSA PALLARES GARCIA           0000000000000000000001DOMICILIACION                           00                     
020000090300100000000001500020250512                        51202505120020300005256781169313892JAIME ENRIQUE NAVARRO SANCHEZ           0160029215000004920240502145656140900000JAIME ENRIQUE NAVARRO SANCHEZ           0000000000000000000001DOMICILIACION                           00                     
020000091300100000000010000020250512                        51202505120020300005204160208664396IGNACIO HURTADO HERRERA                 3202241424000013420220811184340498100000IGNACIO HURTADO HERRERA                 0000000000000000000001DOMICILIACION                           00                     
020000092300100000000005000020250512                        51202505120020300005256781997965699EDGAR GERARDO CASTILLO BERNAL           3500006252000015120220331165620176100000EDGAR GERARDO CASTILLO BERNAL           0000000000000000000001DOMICILIACION                           00                     
020000093300100000000015000020250512                        51202505120024000002560904172820833MARIANA GONZALEZ SANCHEZ                3202061965000015520220406001353183900000MARIANA GONZALEZ SANCHEZ                0000000000000000000001DOMICILIACION                           00                     
020000094300100000000003000020250512                        51202505120020300005256783759960090VERONICA CAROLINA FLORES RAMIREZ        3201803470000014920220408114129707400000VERONICA CAROLINA FLORES RAMIREZ        0000000000000000000001DOMICILIACION                           00                     
020000095300100000000003000020250512                        51202505120024000002180701636253833MARIA FERNANDA MACIN HUERTA             3200100946000016720220106120110443600000MARIA FERNANDA MACIN HUERTA             0000000000000000000001DOMICILIACION                           00                     
020000096300100000000001000020250512                        51202505120020300005256781881730191MARIA DEL CARMEN VALLE ALEMAN           3201813708000016020220111125234964800000MARIA DEL CARMEN VALLE ALEMAN           0000000000000000000001DOMICILIACION                           00                     
020000097300100000000001000020250512                        51202505120024000002840902491009772ELDA MARTINA SALDANA REYES              3202055425000014820220418093527941600000ELDA MARTINA SALDANA REYES              0000000000000000000001DOMICILIACION                           00                     
020000098300100000000005000020250512                        51202505120020300005256782582272194KARLA DANIELLA CORDERO MARTINEZ         3201701104000016920211021170033494600000KARLA DANIELLA CORDERO MARTINEZ         0000000000000000000001DOMICILIACION                           00                     
020000099300100000000001000020250512                        51202505120024000002823901417276714JOSE LUIS GONZALEZ SILVA                3201470926000017620211101163104718600000JOSE LUIS GONZALEZ SILVA                0000000000000000000001DOMICILIACION                           00                     
020000100300100000000001000020250512                        51202505120024000002180902136808613NOEL CORTES NICOLAS                     3201779312000016320211217145430148200000NOEL CORTES NICOLAS                     0000000000000000000001DOMICILIACION                           00                     
020000101300100000000006500020250512                        51202505120024000002040903481307131YASSERTH JAVIER RODRIGUEZ JIMENEZ       3201188803000017320220105091335763700000YASSERTH JAVIER RODRIGUEZ JIMENEZ       0000000000000000000001DOMICILIACION                           00                     
020000102300100000000001000020250512                        51202505120020300005256780273382595CARLOS DAVILA ALFARO                    3201709174000016720211108175837846800000CARLOS DAVILA ALFARO                    0000000000000000000001DOMICILIACION                           00                     
020000103300100000000001000020250512                        51202505120020300005256783241968099LUIS HUGO GUZMAN ARROYO                 3201908995000016020220131155901428100000LUIS HUGO GUZMAN ARROYO                 0000000000000000000001DOMICILIACION                           00                     
020000104300100000000005000020250512                        51202505120024000002180755500249424JACKELINE XIMENA MAXEMIN BARRERA        3201928089000015720220214142859002900000JACKELINE XIMENA MAXEMIN BARRERA        0000000000000000000001DOMICILIACION                           00                     
020000105300100000000001000020250512                        51202505120024000002022701478088777ELIZABETH FABIOLA VALADEZ MARTINEZ      3300670402000015620220215141813515100000ELIZABETH FABIOLA VALADEZ MARTINEZ      0000000000000000000001DOMICILIACION                           00                     
020000106300100000000001000020250512                        51202505120020300005256783513539594ARIANA JANET TORRES CONTRERAS           3201602801000017420211103121913339900000ARIANA JANET TORRES CONTRERAS           0000000000000000000001DOMICILIACION                           00                     
020000107300100000000002500020250512                        51202505120024000002180700929938316TANIA PENA BARRIOS                      6442024462000016220220112092238311500000TANIA PENA BARRIOS                      0000000000000000000001DOMICILIACION                           00                     
020000108300100000000001500020250512                        51202505120020300005256786091939698MANUEL FLORES MOURE                     3201864117000016320220107114638217100000MANUEL FLORES MOURE                     0000000000000000000001DOMICILIACION                           00                     
020000109300100000000001000020250512                        51202505120020300005256781100285993HECTOR GABRIEL RIVERA AVELAR            3200245634000007920220111213104265000000HECTOR GABRIEL RIVERA AVELAR            0000000000000000000001DOMICILIACION                           00                     
020000110300100000000001500020250512                        51202505120024000002180904703295398GABRIELA ISABEL MEDINA PEREZ            3201409560000016220220105122626928800000GABRIELA ISABEL MEDINA PEREZ            0000000000000000000001DOMICILIACION                           00                     
020000111300100000000005000020250512                        51202505120020300005256783699363793MIGUEL ANGEL ROMERO CONSTANTINO         6442034325000009020220105001337727500000MIGUEL ANGEL ROMERO CONSTANTINO         0000000000000000000001DOMICILIACION                           00                     
020000112300100000000002000020250512                        51202505120020300005204165130349792ADALBERTO LEAL SANDOVAL                 3201543937000016120220112142934872000000ADALBERTO LEAL SANDOVAL                 0000000000000000000001DOMICILIACION                           00                     
020000113300100000000001000020250512                        51202505120020300005256782216058498FRANCISCO ANTONIO ASUNCION SOTELO       3201831364000016620211217153657166900000FRANCISCO ANTONIO ASUNCION SOTELO       0000000000000000000001DOMICILIACION                           00                     
020000114300100000000001000020250512                        51202505120020300005256786101148090PEDRO ANTONIO VILLALOBOS VASQUEZ        3201739965000017720211111145831535500000PEDRO ANTONIO VILLALOBOS VASQUEZ        0000000000000000000001DOMICILIACION                           00                     
020000115300100000000001000020250512                        51202505120024000002580904231903794JESSICA PAOLA LEZA ZAMBRANO             3300295833000017420211014163842037400000JESSICA PAOLA LEZA ZAMBRANO             0000000000000000000001DOMICILIACION                           00                     
020000116300100000000001500020250512                        51202505120020300005256786113974491LILIA JUAREZ RIOS                       1100040300000016820211115205244739000000LILIA JUAREZ RIOS                       0000000000000000000001DOMICILIACION                           00                     
020000117300100000000001000020250512                        51202505120024000002180701639366565SERGIO DAVID MONTES CUELLAR             3202045289000015220220328143529400900000SERGIO DAVID MONTES CUELLAR             0000000000000000000001DOMICILIACION                           00                     
020000118300100000000001000020250512                        51202505120020300005256781881728294ROSA ISELA GARCIA REYES                 3201813506000016420211210100345189700000ROSA ISELA GARCIA REYES                 0000000000000000000001DOMICILIACION                           00                     
020000119300100000000002000020250512                        51202505120020300005256783065069693JOSE LUIS PEREZ BUSTAMANTE              3201605602000016620220103203812117100000JOSE LUIS PEREZ BUSTAMANTE              0000000000000000000001DOMICILIACION                           00                     
020000120300100000000001000020250512                        51202505120020300005256781936296594FABIAN RAMIREZ QUIHUI                   3201819807000016220211221223615561400000FABIAN RAMIREZ QUIHUI                   0000000000000000000001DOMICILIACION                           00                     
020000121300100000000001000020250512                        51202505120020300005256783103532793YOANA PAVET DE LA TORRE VAZQUEZ         3201996512000015520220304082201023300000YOANA PAVET DE LA TORRE VAZQUEZ         0000000000000000000001DOMICILIACION                           00                     
020000122300100000000005000020250512                        51202505120024000002180701806787333RODOLFO PASTELIN PALACIOS               2550024989000014920220331135131032300000RODOLFO PASTELIN PALACIOS               0000000000000000000001DOMICILIACION                           00                     
020000123300100000000050000020250512                        51202505120024000002190468400014230UBALDO CATARINO ARIAS                   3200704817000025720200311125852207700000UBALDO CATARINO ARIAS                   0000000000000000000001DOMICILIACION                           00                     
020000124300100000000002000020250512                        51202505120020300005256782863879790ALMA HAYDEE SILVA CASTILLO              3200700838000012520200228163737402100000ALMA HAYDEE SILVA CASTILLO              0000000000000000000001DOMICILIACION                           00                     
020000125300100000000001500020250512                        51202505120024000002320901929429688VALERIA GUZMAN VEGA                     3300398739000012720200117132901400000000VALERIA GUZMAN VEGA                     0000000000000000000001DOMICILIACION                           00                     
020000126300100000000002000020250512                        51202505120024000002180901971179812VERONICA RICO MAR                       3200714349000024520200325185924438200000VERONICA RICO MAR                       0000000000000000000001DOMICILIACION                           00                     
020000127300100000000002000020250512                        51202505120020300005256781952777097PATRICIA DEL CARMEN SUAREZ GARCIA       3200597615000013720190828081132006500000PATRICIA DEL CARMEN SUAREZ GARCIA       0000000000000000000001DOMICILIACION                           00                     
020000128300100000000002000020250512                        51202505120020300005256781128087892KARINA ALEJANDRA ESTRADA VARGAS         3200655618000012920200206090232020900000KARINA ALEJANDRA ESTRADA VARGAS         0000000000000000000001DOMICILIACION                           00                     
020000129300100000000002000020250512                        51202505120020300005256786033204193RENE FARFAN ARAGON                      3200669486000012720200114180929480700000RENE FARFAN ARAGON                      0000000000000000000001DOMICILIACION                           00                     
020000130300100000000002000020250512                        51202505120020300005256780309133699GERARDO HERNANDEZ ENRIQUEZ              3200719425000024520200327125825064700000GERARDO HERNANDEZ ENRIQUEZ              0000000000000000000001DOMICILIACION                           00                     
020000131300100000000002000020250512                        51202505120020300005256782275414996ANGEL ARTURO MARTINEZ VILLEGAS          3200702029000012520200303150046483500000ANGEL ARTURO MARTINEZ VILLEGAS          0000000000000000000001DOMICILIACION                           00                     
020000132300100000000002500020250512                        51202505120020300005204167339089799MARIA TERESA BECERRIL ACEVES            1120048228000022520200907134522066200000MARIA TERESA BECERRIL ACEVES            0000000000000000000001DOMICILIACION                           00                     
020000133300100000000001000020250512                        51202505120020300005256783058687295GRISELDA GARCIA CABRERA                 3300276354000022320200923191056374900000GRISELDA GARCIA CABRERA                 0000000000000000000001DOMICILIACION                           00                     
020000134300100000000002000020250512                        51202505120024000002544902756932932LETICIA BARRERA IRAZOQUE                3200844164000022220201005101656034900000LETICIA BARRERA IRAZOQUE                0000000000000000000001DOMICILIACION                           00                     
020000135300100000000006000020250512                        51202505120024000002180019470799287ANDRES IRAZABAL CORTES                  3070002972000012920200107094057022500000ANDRES IRAZABAL CORTES                  0000000000000000000001DOMICILIACION                           00                     
020000136300100000000002000020250512                        51202505120024000002180902865499681ADOLFO GARCIA PEREZ                     3200322842000023420200630090453007000000ADOLFO GARCIA PEREZ                     0000000000000000000001DOMICILIACION                           00                     
020000137300100000000002500020250512                        51202505120020300005256782411555397EDGAR RUIZ MORENO                       3200692529000025720200219190219072800000EDGAR RUIZ MORENO                       0000000000000000000001DOMICILIACION                           00                     
020000138300100000000002000020250512                        51202505120020300005256780970025299CARLOS NOE LOPEZ MORIN                  3200711358000012320200327125806061800000CARLOS NOE LOPEZ MORIN                  0000000000000000000001DOMICILIACION                           00                     
020000139300100000000002000020250512                        51202505120024000002180700712652249JOSE GERARDO RAMIREZ VILLAFUERTE        2810022122000024520200407170022404700000JOSE GERARDO RAMIREZ VILLAFUERTE        0000000000000000000001DOMICILIACION                           00                     
020000140300100000000004000020250512                        51202505120024000002020900026455636ARTURO GONZALEZ BERNAL                  3200822381000022520200915121645168400000ARTURO GONZALEZ BERNAL                  0000000000000000000001DOMICILIACION                           00                     
020000141300100000000002000020250512                        51202505120024000002320903487096810MARTIN FRANCISCO RIVERA NUNEZ           3200577453000022920200904134906215700000MARTIN FRANCISCO RIVERA NUNEZ           0000000000000000000001DOMICILIACION                           00                     
020000142300100000000010000020250512                        51202505120024000002180032163259228YURI AUGUSTO ROBLES HEDJAN              3200721153000011520200702194442334900000YURI AUGUSTO ROBLES HEDJAN              0000000000000000000001DOMICILIACION                           00                     
020000143300100000000001000020250512                        51202505120020300005206949028218799RICARDO MARTINEZ LUNA                   3200248777000011520200730115707071300000RICARDO MARTINEZ LUNA                   0000000000000000000001DOMICILIACION                           00                     
020000144300100000000100000020250512                        51202505120024000002730903657112583GLADYS SELENE OVALLES ARREDONDO         3200819593000011320200908121546187500000GLADYS SELENE OVALLES ARREDONDO         0000000000000000000001DOMICILIACION                           00                     
020000145300100000000010000020250512                        51202505120024000002180418400993081DANIEL ROLANDO CHAVARRIA SALINAS        2030017236000011420200812134112239100000DANIEL ROLANDO CHAVARRIA SALINAS        0000000000000000000001DOMICILIACION                           00                     
020000146300100000000002500020250512                        51202505120020300005256782881614799SERGIO EDGARDO BARRANCO DIAZ            3200702438000011320200818230525296200000SERGIO EDGARDO BARRANCO DIAZ            0000000000000000000001DOMICILIACION                           00                     
020000147300100000000010000020250512                        51202505120020300005204167410815096ALEJANDRA DE GYVES GUTIERREZ            2190011242000003520231114121344729900000ALEJANDRA DE GYVES GUTIERREZ            0000000000000000000001DOMICILIACION                           00                     
020000148300100000000003500020250512                        51202505120024000002180902540386190MAGDALENA TORRES CABALLERO              3200696914000005920240219132209764600000MAGDALENA TORRES CABALLERO              0000000000000000000001DOMICILIACION                           00                     
020000149300100000000006000020250512                        51202505120020300005256783001815597MIGUEL ACEVES DUENAS                    3300787720000011420221208184709541500000MIGUEL ACEVES DUENAS                    0000000000000000000001DOMICILIACION                           00                     
020000150300100000000002000020250512                        51202505120024000002180700515267226NORMA GOMEZ DOMINGUEZ                   6442154321000009720230508125913291400000NORMA GOMEZ DOMINGUEZ                   0000000000000000000001DOMICILIACION                           00                     
020000151300100000000002000020250512                        51202505120020300005256783047005294KARINA RUIZ OLIVO                       3201797416000018520220126144644575400000KARINA RUIZ OLIVO                       0000000000000000000001DOMICILIACION                           00                     
020000152300100000000005000020250512                        51202505120024000002180901340828192SUSANA DOMINGUEZ NICOLAS                2510005659000011120230113152812265300000SUSANA DOMINGUEZ NICOLAS                0000000000000000000001DOMICILIACION                           00                     
020000153300100000000001000020250512                        51202505120020300005256784126229094ULISES AMADEUS SERNA TACU               6449149141000006020240218092339336100000ULISES AMADEUS SERNA TACU               0000000000000000000001DOMICILIACION                           00                     
020000154300100000000001000020250512                        51202505120024000002580903886041141GUILLERMO DANIEL CISNEROS SALAZAR       3202691448000005920240213122901163800000GUILLERMO DANIEL CISNEROS SALAZAR       0000000000000000000001DOMICILIACION                           00                     
020000155300100000000010000020250512                        51202505120020300005204167434579892HERNAN HERNANDEZ HURTADO                2450008732000003320240109134042809500000HERNAN HERNANDEZ HURTADO                0000000000000000000001DOMICILIACION                           00                     
020000156300100000000001000020250512                        51202505120020300005256783746029298GABRIELA JUDITH JACOBO HERNANDEZ        3202624764000007020231209112459014300000GABRIELA JUDITH JACOBO HERNANDEZ        0000000000000000000001DOMICILIACION                           00                     
020000157300100000000001000020250512                        51202505120024000002180902528344426ISRAEL CAMARILLO CAMPOS                 3200488307000003520231120135519963100000ISRAEL CAMARILLO CAMPOS                 0000000000000000000001DOMICILIACION                           00                     
020000158300100000000004000020250512                        51202505120024000002691700276369910ANDREA GUADALUPE HERRERA ESTRADA        3300429828000006720231217115353606400000ANDREA GUADALUPE HERRERA ESTRADA        0000000000000000000001DOMICILIACION                           00                     
020000159300100000000020000020250512                        51202505120020300005256786127913493CLARISSA MAYRA VELASCO HERNANDEZ        3200357663000007120231128112953680500000CLARISSA MAYRA VELASCO HERNANDEZ        0000000000000000000001DOMICILIACION                           00                     
020000160300100000000002000020250512                        51202505120024000002320701744376514DIEGO CORDERO DIAZ                      3200708677000010120210306155726060700000DIEGO CORDERO DIAZ                      0000000000000000000001DOMICILIACION                           00                     
020000161300100000000017500020250512                        51202505120024000002180902896424036MERCEDES FLORES REYNA                   3201571368000006520231228125005151400000MERCEDES FLORES REYNA                   0000000000000000000001DOMICILIACION                           00                     
020000162300100000000001000020250512                        51202505120024000002180700842809904JOSE FERNANDO FLORES GARCIA             3202705615000005720240223140339266600000JOSE FERNANDO FLORES GARCIA             0000000000000000000001DOMICILIACION                           00                     
020000163300100000000005000020250512                        51202505120020300005256786075645196ABIGAYL ARIADNA HERNANDEZ ARRIETA       3300303486000003020240302095152099200000ABIGAYL ARIADNA HERNANDEZ ARRIETA       0000000000000000000001DOMICILIACION                           00                     
020000164300100000000001000020250512                        51202505120020300005256782253302296JORGE ORTIZ MONTIEL                     3202640425000006720231219115203746000000JORGE ORTIZ MONTIEL                     0000000000000000000001DOMICILIACION                           00                     
020000165300100000000002500020250512                        51202505120020300005256782954022797LAURA SANDRA GONZALEZ GARCIA            3202686241000005720240229224307240200000LAURA SANDRA GONZALEZ GARCIA            0000000000000000000001DOMICILIACION                           00                     
020000166300100000000001000020250512                        51202505120024000002180902252946064GABRIELA GARCIA ARIAS                   3202578795000007120231109145200415600000GABRIELA GARCIA ARIAS                   0000000000000000000001DOMICILIACION                           00                     
020000167300100000000002000020250512                        51202505120024000002180901305364167FRANCISCO DAVID ALVA MORALES            3200715328000007420220325130848025000000FRANCISCO DAVID ALVA MORALES            0000000000000000000001DOMICILIACION                           00                     
020000168300100000000001000020250512                        51202505120024000002150904627244617RAUL ECHAVARRIA ALMEIDA                 3202114975000014320220516184732189400000RAUL ECHAVARRIA ALMEIDA                 0000000000000000000001DOMICILIACION                           00                     
020000169300100000000001500020250512                        51202505120020300005256783548602896MARCOS CORONA PIZANO                    2360031167000007020220709182107596300000MARCOS CORONA PIZANO                    0000000000000000000001DOMICILIACION                           00                     
020000170300100000000001000020250512                        51202505120020300005256786084924194MARIA FERNANDA PULIDO BARRIENTOS        6449109938000003520231121221144879600000MARIA FERNANDA PULIDO BARRIENTOS        0000000000000000000001DOMICILIACION                           00                     
020000171300100000000002000020250512                        51202505120024000002180020976360206MIRIAM ROMERO PEREZ                     3201988815000007120231116124732481500000MIRIAM ROMERO PEREZ                     0000000000000000000001DOMICILIACION                           00                     
020000172300100000000002000020250512                        51202505120024000002320902500931439GRICELDA ERENDIRA OCEGUERA ARREDONDO    3202636567000006720231209130012034900000GRICELDA ERENDIRA OCEGUERA ARREDONDO    0000000000000000000001DOMICILIACION                           00                     
020000173300100000000006000020250512                        51202505120020300005256783888185890MANUEL ALBERTO VAZQUEZ PALOMARES        1120075715000004020231201093706901500000MANUEL ALBERTO VAZQUEZ PALOMARES        0000000000000000000001DOMICILIACION                           00                     
020000174300100000000003000020250512                        51202505120024000002150701040149589RAUL EFRAIN ACOSTA BARRAZA              3200901358000003320231208182210881300000RAUL EFRAIN ACOSTA BARRAZA              0000000000000000000001DOMICILIACION                           00                     
020000175300100000000010000020250512                        51202505120020300005256788161401195BEATRIZ YOLANDA ARIZA CRUZ              3202514993000003520231121231357888100000BEATRIZ YOLANDA ARIZA CRUZ              0000000000000000000001DOMICILIACION                           00                     
020000176300100000000001000020250512                        51202505120020300005256784005798599ELISEO CARRETO TERRONES                 3202724553000005620240313130200386400000ELISEO CARRETO TERRONES                 0000000000000000000001DOMICILIACION                           00                     
020000177300100000000001000020250512                        51202505120020300005256784079814397JOSE JAIME RAMIREZ DURAN                3202729960000005520240319142507569200000JOSE JAIME RAMIREZ DURAN                0000000000000000000001DOMICILIACION                           00                     
020000178300100000000005000020250512                        51202505120020300005256783688356592PERLA OLIVIA AGUIRRE CRUZ               3202769713000004920240426091313950300000PERLA OLIVIA AGUIRRE CRUZ               0000000000000000000001DOMICILIACION                           00                     
020000179300100000000005000020250512                        51202505120020300005204165981683299CESAR ADRIAN CASTANEDA URENA            3202784819000004720240515160101361500000CESAR ADRIAN CASTANEDA URENA            0000000000000000000001DOMICILIACION                           00                     
020000180300100000000001500020250512                        51202505120020300005256782907902392CRISTIAN MOISES REYES MARTINEZ          3202680777000004520240608154036425500000CRISTIAN MOISES REYES MARTINEZ          0000000000000000000001DOMICILIACION                           00                     
020000181300100000000001000020250512                        51202505120024000002180700678791613OMEGAR MARTINEZ JIMENEZ                 3200592349000013720190815180847053800000OMEGAR MARTINEZ JIMENEZ                 0000000000000000000001DOMICILIACION                           00                     
020000182300100000000001000020250512                        51202505120020300005256781902915094ALICIA FERNANDEZ OSORIO                 3200591108000015020190815080935011700000ALICIA FERNANDEZ OSORIO                 0000000000000000000001DOMICILIACION                           00                     
020000183300100000000005000020250512                        51202505120024000002180901021998891ANABEL GONZALEZ CARAPIA                 3200605966000027220190912182344247400000ANABEL GONZALEZ CARAPIA                 0000000000000000000001DOMICILIACION                           00                     
020000184300100000000015000020250512                        51202505120024000002180903199395971MARIA DEL ROCIO FRAGOSO CABELLO         1780043095000032820180801140135049800000MARIA DEL ROCIO FRAGOSO CABELLO         0000000000000000000001DOMICILIACION                           00                     
020000185300100000000010000020250512                        51202505120020300005204164223509990JOSE LUIS VIDAL CABRERA                 3200437081000015720180924184618011600000JOSE LUIS VIDAL CABRERA                 0000000000000000000001DOMICILIACION                           00                     
020000186300100000000001000020250512                        51202505120020300005256781503726197YADERITH GIL SOLORZANO                  3200439819000031420180926164725023300000YADERITH GIL SOLORZANO                  0000000000000000000001DOMICILIACION                           00                     
020000187300100000000002000020250512                        51202505120020300005256781497816699ERICK ARMANDO UGALDE CAMACHO            3200570296000028320190710162316044700000ERICK ARMANDO UGALDE CAMACHO            0000000000000000000001DOMICILIACION                           00                     
020000188300100000000001000020250512                        51202505120020300005256781784555596SERGIO CASTREJON LAYNA                  3200514034000014720190314080028029900000SERGIO CASTREJON LAYNA                  0000000000000000000001DOMICILIACION                           00                     
020000189300100000000001000020250512                        51202505120024000002225056857608453SAUL JIMENEZ RODRIGUEZ                  3200515885000029720190320080410004000000SAUL JIMENEZ RODRIGUEZ                  0000000000000000000001DOMICILIACION                           00                     
020000190300100000000025000020250512                        51202505120024000002180414400091806MARTIN JAIME TENORIO MEDINA             0010047157000018420171209103856004500000MARTIN JAIME TENORIO MEDINA             0000000000000000000001DOMICILIACION                           00                     
020000191300100000000005000020250512                        51202505120024000002180903403885096BEATRIZ ADRIANA CHALE MENDOZA           3300311557000027820190709141655135400000BEATRIZ ADRIANA CHALE MENDOZA           0000000000000000000001DOMICILIACION                           00                     
020000192300100000000001000020250512                        51202505120024000002580097900481292JUDITH PESCI CASTILLO                   3200539752000014520190508080213006400000JUDITH PESCI CASTILLO                   0000000000000000000001DOMICILIACION                           00                     
020000193300100000000001000020250512                        51202505120024000002180965600106613GERARDO RAMOS SERRANO                   3200372941000027120180515080405001200000GERARDO RAMOS SERRANO                   0000000000000000000001DOMICILIACION                           00                     
020000194300100000000010000020250512                        51202505120020300005206949028897196VICTOR JOAQUIN JARAMILLO LUQUE          0380051554000015320181220184114098400000VICTOR JOAQUIN JARAMILLO LUQUE          0000000000000000000001DOMICILIACION                           00                     
020000195300100000000001000020250512                        51202505120020300005206947568663994CARLOS DAVID MADRIGAL GONZALEZ          3200392757000016520180618212126010700000CARLOS DAVID MADRIGAL GONZALEZ          0000000000000000000001DOMICILIACION                           00                     
020000196300100000000005500020250512                        51202505120020300005256786058540398JOSUE DE JESUS RIVERA GUEVARA           3200304709000033120180707135649010800000JOSUE DE JESUS RIVERA GUEVARA           0000000000000000000001DOMICILIACION                           00                     
020000197300100000000001000020250512                        51202505120020300005256781654969992LESLIE SELENE BERMUDEZ VALDEZ           3200414845000032220180806155616000300000LESLIE SELENE BERMUDEZ VALDEZ           0000000000000000000001DOMICILIACION                           00                     
020000198300100000000005000020250512                        51202505120020300005256788055584098MARIA LUISA HERRERA LOPEZ               3200450333000031820181017081139009800000MARIA LUISA HERRERA LOPEZ               0000000000000000000001DOMICILIACION                           00                     
020000199300100000000002000020250512                        51202505120024000002180901722581730HILDA DE LEON MENDEZ                    3200133184000015920181016131052053300000HILDA DE LEON MENDEZ                    0000000000000000000001DOMICILIACION                           00                     
020000200300100000000002000020250512                        51202505120020300005204164402728494DIANA MARIA DEL CARMEN FUENTES HURTADO  1170049017000031620181031132410041900000DIANA MARIA DEL CARMEN FUENTES HURTADO  0000000000000000000001DOMICILIACION                           00                     
020000201300100000000004000020250512                        51202505120020300005256782561203293RAYMUNDO DELFINO CRUZ                   3200532628000029720190423080316005500000RAYMUNDO DELFINO CRUZ                   0000000000000000000001DOMICILIACION                           00                     
020000202300100000000001000020250512                        51202505120024000002180414200236670SEBASTIAN CASANOVA DIAZ                 3200527355000014620190415120356015800000SEBASTIAN CASANOVA DIAZ                 0000000000000000000001DOMICILIACION                           00                     
020000203300100000000001000020250512                        51202505120024000002420900900026189ANTONIO DARIO GARAY SERRANO             3200526552000014920190408080457015400000ANTONIO DARIO GARAY SERRANO             0000000000000000000001DOMICILIACION                           00                     
020000204300100000000010000020250512                        51202505120020300005256782613116592REBECA DUARTE QUIROGA                   3200396810000006120221107104757409600000REBECA DUARTE QUIROGA                   0000000000000000000001DOMICILIACION                           00                     
020000205300100000000005000020250512                        51202505120024000002794900523830048DIANA DEISY CASTELLANOS RICARDEZ        3201827461000013020221220180117531600000DIANA DEISY CASTELLANOS RICARDEZ        0000000000000000000001DOMICILIACION                           00                     
020000206300100000000001000020250512                        51202505120024000002320903391255378ELVA GRICELDA MORALES RAYGOZA           6442129430000012620221118181647878800000ELVA GRICELDA MORALES RAYGOZA           0000000000000000000001DOMICILIACION                           00                     
020000207300100000000002500020250512                        51202505120020300005256783625187191EVELYN ALEXANDRA MANTILLA CARVAJAL      3201022253000009820230428141939242200000EVELYN ALEXANDRA MANTILLA CARVAJAL      0000000000000000000001DOMICILIACION                           00                     
020000208300100000000001000020250512                        51202505120020300005256783548199893LUIS ARMANDO  CANTERO JIMENEZ           3300828689000010120230330134138673700000LUIS ARMANDO  CANTERO JIMENEZ           0000000000000000000001DOMICILIACION                           00                     
020000209300100000000004500020250512                        51202505120020300005256786126440696MARIA ISABEL AGUILAR ESPINO             3202451031000008420230822153251701300000MARIA ISABEL AGUILAR ESPINO             0000000000000000000001DOMICILIACION                           00                     
020000210300100000000020000020250512                        51202505120024000002290012280647652SANDRA RAMIREZ ISLAS                    3202549024000008120230830141501827100000SANDRA RAMIREZ ISLAS                    0000000000000000000001DOMICILIACION                           00                     
020000211300100000000005000020250512                        51202505120020300005256780871116999MARIA DEL ROSARIO CAMPOS BECERRA        3202424218000008920230825215126253200000MARIA DEL ROSARIO CAMPOS BECERRA        0000000000000000000001DOMICILIACION                           00                     
020000212300100000000001000020250512                        51202505120020300005256781552233699LETICIA MIRANDA CABELLO                 3200498692000010320230418103800146600000LETICIA MIRANDA CABELLO                 0000000000000000000001DOMICILIACION                           00                     
020000213300100000000005000020250512                        51202505120024000002078902488268262OSCAR ABDIEL GOMEZ CONTRERAS            3200655823000010820230410145535956700000OSCAR ABDIEL GOMEZ CONTRERAS            0000000000000000000001DOMICILIACION                           00                     
020000214300100000000001000020250512                        51202505120020300005204165894433691ESTELA GILES SANTOS                     3200473722000007920230922084404667700000ESTELA GILES SANTOS                     0000000000000000000001DOMICILIACION                           00                     
020000215300100000000008000020250512                        51202505120020300005204167230689697FERNANDA NOEMI MENDOZA PEREZ            1210061182000004020230904223614476700000FERNANDA NOEMI MENDOZA PEREZ            0000000000000000000001DOMICILIACION                           00                     
020000216300100000000005000020250512                        51202505120020300005256783199160590NEFTALI BENJAMIN SAUZA AGUIRRE          3300295291000003620230920153243781300000NEFTALI BENJAMIN SAUZA AGUIRRE          0000000000000000000001DOMICILIACION                           00                     
020000217300100000000001000020250512                        51202505120020300005256786134501893ISMAEL VENZOR ALVAREZ                   3200860814000013220230427101714320800000ISMAEL VENZOR ALVAREZ                   0000000000000000000001DOMICILIACION                           00                     
020000218300100000000005000020250512                        51202505120024000002180903530845174ERIK RODRIGO CASTILLO MANRIQUEZ         3201982558000009520230517184622242300000ERIK RODRIGO CASTILLO MANRIQUEZ         0000000000000000000001DOMICILIACION                           00                     
020000219300100000000001000020250512                        51202505120024000002540902810507951BLANCA ESTELA MARTINEZ MONTERREY        3200725516000009520230517160300150000000BLANCA ESTELA MARTINEZ MONTERREY        0000000000000000000001DOMICILIACION                           00                     
020000220300100000000005000020250512                        51202505120020300005256784009678094ESTHER MARTINEZ HERRERA                 3100011428000009720230510112448422400000ESTHER MARTINEZ HERRERA                 0000000000000000000001DOMICILIACION                           00                     
020000221300100000000001500020250512                        51202505120024000002730701464195759PAOLA CAROLINA FELIX LOPEZ              3202511425000008720230714155837706100000PAOLA CAROLINA FELIX LOPEZ              0000000000000000000001DOMICILIACION                           00                     
020000222300100000000005000020250512                        51202505120024000002882902800020889JUDITH LUZ MARIA LANDA LARA             3300061788000004320230718095247943000000JUDITH LUZ MARIA LANDA LARA             0000000000000000000001DOMICILIACION                           00                     
020000223300100000000001000020250512                        51202505120024000002180902122339426MARGARITO BUSTOS MILLAN                 3202403019000008520230223134338608400000MARGARITO BUSTOS MILLAN                 0000000000000000000001DOMICILIACION                           00                     
020000224300100000000002000020250512                        51202505120020300005256783343066693ALMA DELIA CELIS HERNANDEZ              3202553021000008620230906164228753600000ALMA DELIA CELIS HERNANDEZ              0000000000000000000001DOMICILIACION                           00                     
020000225300100000000002000020250512                        51202505120024000002180904090058442RUTH SARAI BARTHELL TORRES              3201311542000010220230506212816814600000RUTH SARAI BARTHELL TORRES              0000000000000000000001DOMICILIACION                           00                     
020000226300100000000005100020250512                        51202505120024000002438701889863803ALICIA PEREZ CONZUELO                   1030033678000003720230913093913956700000ALICIA PEREZ CONZUELO                   0000000000000000000001DOMICILIACION                           00                     
020000227300100000000010000020250512                        51202505120020300005204165359840299ANA ISABEL CISNEROS VALLEJO             3300820333000008420230911131549885600000ANA ISABEL CISNEROS VALLEJO             0000000000000000000001DOMICILIACION                           00                     
020000228300100000000001500020250512                        51202505120024000002180901372483194YULIANA JOSEFINA ZARZA MARTINEZ         6442123430000011120230116182727227100000YULIANA JOSEFINA ZARZA MARTINEZ         0000000000000000000001DOMICILIACION                           00                     
020000229300100000000018000020250512                        51202505120024000002180902747096335MARIA ISABEL AGUILAR ESPINO             3202451031000008520230822111802548900000MARIA ISABEL AGUILAR ESPINO             0000000000000000000001DOMICILIACION                           00                     
020000230300100000000002500020250512                        51202505120020300005204167400642898IBERIA APAEZ OLGUIN                     3201179521000008120230829165615321200000IBERIA APAEZ OLGUIN                     0000000000000000000001DOMICILIACION                           00                     
020000231300100000000001000020250512                        51202505120024000002470469600035783JOSE LUIS MANZO CARRASCO                3202552984000007920230905121034861600000JOSE LUIS MANZO CARRASCO                0000000000000000000001DOMICILIACION                           00                     
020000232300100000000001000020250512                        51202505120024000002180700876176946BLANCA MARGARITA GALICIA HERNANDEZ      1330054780000008120230830110458639700000BLANCA MARGARITA GALICIA HERNANDEZ      0000000000000000000001DOMICILIACION                           00                     
020000233300100000000007500020250512                        51202505120024000002225901333629661SUSANA PINEDA RODRIGUEZ                 6110000455000011920221122142058758200000SUSANA PINEDA RODRIGUEZ                 0000000000000000000001DOMICILIACION                           00                     
020000234300100000000001000020250512                        51202505120024000002167701736925262ERASMO ORDONEZ RAMIREZ                  3300690472000011220230124140216248100000ERASMO ORDONEZ RAMIREZ                  0000000000000000000001DOMICILIACION                           00                     
020000235300100000000005000020250512                        51202505120024000002180904822647694FRANCISCO HUERGO ZAMORA                 2680015869000007920230918142827310300000FRANCISCO HUERGO ZAMORA                 0000000000000000000001DOMICILIACION                           00                     
020000236300100000000002000020250512                        51202505120020300005256781740936294ANA ISABEL MORALES VILLAVICENCIO        3202548066000008120230829152636012300000ANA ISABEL MORALES VILLAVICENCIO        0000000000000000000001DOMICILIACION                           00                     
020000237300100000000003000020250512                        51202505120020300005204160078681496LEOBARDO TORRES LORA                    5030001458000005820221220125633241100000LEOBARDO TORRES LORA                    0000000000000000000001DOMICILIACION                           00                     
020000238300100000000006000020250512                        51202505120020300005256783059444894LUIS FERNANDO PENA PELAYO               3202097337000021320220429164759424700000LUIS FERNANDO PENA PELAYO               0000000000000000000001DOMICILIACION                           00                     
020000239300100000000001000020250512                        51202505120020300005256783488598492GERMAN HERNANDEZ TRUJILLO               3202100207000014520220502173626982700000GERMAN HERNANDEZ TRUJILLO               0000000000000000000001DOMICILIACION                           00                     
020000240300100000000010000020250512                        51202505120024000002580903535230575DARIO ALEJANDRO ORTIZ TELLO             3200432592000013320220810221606946100000DARIO ALEJANDRO ORTIZ TELLO             0000000000000000000001DOMICILIACION                           00                     
020000241300100000000001000020250512                        51202505120024000002180900751283039NANCY BELEN RAMIREZ MARTINEZ            3202214040000013520220721163256173400000NANCY BELEN RAMIREZ MARTINEZ            0000000000000000000001DOMICILIACION                           00                     
020000242300100000000002500020250512                        51202505120024000002180700930701684LOTHAR EDWIN TORRES CALDERON            3202203810000013320220726123404354200000LOTHAR EDWIN TORRES CALDERON            0000000000000000000001DOMICILIACION                           00                     
020000243300100000000002000020250512                        51202505120020300005256782840365293ARTURO BELMONTE PEREZ                   3202246413000013220220818194915430700000ARTURO BELMONTE PEREZ                   0000000000000000000001DOMICILIACION                           00                     
020000244300100000000001000020250512                        51202505120024000002180700769812388JANICE THALIA GURRION MORENO            3300336156000006420220826141952173500000JANICE THALIA GURRION MORENO            0000000000000000000001DOMICILIACION                           00                     
020000245300100000000005000020250512                        51202505120020300005256783121467998ALAN ARIEL GONZALEZ GONZALEZ            3300742806000013320220812192617021400000ALAN ARIEL GONZALEZ GONZALEZ            0000000000000000000001DOMICILIACION                           00                     
020000246300100000000001000020250512                        51202505120024000002320903863605870ALFREDO CUEVAS RODRIGUEZ                3202130855000014320220524170022062200000ALFREDO CUEVAS RODRIGUEZ                0000000000000000000001DOMICILIACION                           00                     
020000247300100000000015000020250512                        51202505120020300005204165840891596RICARDO PERRUSQUIA ALVAREZ              3100129325000014320220509100301826000000RICARDO PERRUSQUIA ALVAREZ              0000000000000000000001DOMICILIACION                           00                     
020000248300100000000001000020250512                        51202505120020300005256782067307598MARIA DE LA LUZ RODRIGUEZ VILLASENOR    3202044624000014720220411194400882900000MARIA DE LA LUZ RODRIGUEZ VILLASENOR    0000000000000000000001DOMICILIACION                           00                     
020000249300100000000001000020250512                        51202505120020300005256782272700090EDMUNDO IBARRA FUENTES                  3202035655000015020220323132640858200000EDMUNDO IBARRA FUENTES                  0000000000000000000001DOMICILIACION                           00                     
020000250300100000000002000020250512                        51202505120024000002180701653481824HILDA SUSANA ROCHA CABALLERO            3202038070000015220220323152857974800000HILDA SUSANA ROCHA CABALLERO            0000000000000000000001DOMICILIACION                           00                     
020000251300100000000001000020250512                        51202505120020300005256783835254096RAMON TREJO CORREA                      3201631869000011120230124191914458100000RAMON TREJO CORREA                      0000000000000000000001DOMICILIACION                           00                     
020000252300100000000001000020250512                        51202505120020300005256783344361598JOSE PAULO MORENO ROMERO                3202100837000014620220503092438136700000JOSE PAULO MORENO ROMERO                0000000000000000000001DOMICILIACION                           00                     
020000253300100000000001000020250512                        51202505120024000002180902952486361MIRSA VILLANUEVA PEREZ                  3202091250000014620220503153944484400000MIRSA VILLANUEVA PEREZ                  0000000000000000000001DOMICILIACION                           00                     
020000254300100000000006000020250512                        51202505120020300005256786107529491ELIA BELEM CHAVEZ ROCHA                 1910014764000007320220429071439973300000ELIA BELEM CHAVEZ ROCHA                 0000000000000000000001DOMICILIACION                           00                     
020000255300100000000001000020250512                        51202505120020300005256780865418898JULIO OLVERA ALVARADO                   3202204779000013520220714170628396000000JULIO OLVERA ALVARADO                   0000000000000000000001DOMICILIACION                           00                     
020000256300100000000005000020250512                        51202505120024000002180701032606961MELISSA MARIA RANDO NAVAS               3300319668000006720220729181608129300000MELISSA MARIA RANDO NAVAS               0000000000000000000001DOMICILIACION                           00                     
020000257300100000000001000020250512                        51202505120020300005256783625075594CINTHIA ALEJANDRA OLIVA RANGEL          3202077788000014920220418153505228400000CINTHIA ALEJANDRA OLIVA RANGEL          0000000000000000000001DOMICILIACION                           00                     
020000258300100000000001500020250512                        51202505120024000002744058300358522ADELINA ESTHER TORRES OSUNA             3200974084000011720230104131624866000000ADELINA ESTHER TORRES OSUNA             0000000000000000000001DOMICILIACION                           00                     
020000259300100000000001000020250512                        51202505120024000002180700169293772SILVIA ADRIANA LIMA MARTINEZ            3202214135000013420220722122142555600000SILVIA ADRIANA LIMA MARTINEZ            0000000000000000000001DOMICILIACION                           00                     
020000260300100000000001000020250512                        51202505120024000002455903790033370ELBA NOEMI FIERROS GAMA                 3202207265000013520220718160937000600000ELBA NOEMI FIERROS GAMA                 0000000000000000000001DOMICILIACION                           00                     
020000261300100000000001000020250512                        51202505120020300005204165337817195JUAN JOSE DAVILA SOTELO                 6442161704000011620221212154744607300000JUAN JOSE DAVILA SOTELO                 0000000000000000000001DOMICILIACION                           00                     
020000262300100000000002500020250512                        51202505120020300005206949666510697ARMANDO ROMERO BARRANCO                 3203328698000000720250318121254465600000ARMANDO ROMERO BARRANCO                 0000000000000000000001DOMICILIACION                           00                     
020000263300100000000005000020250512                        51202505120024000002905903746516676ROBERTO DOMINGUEZ CAZARIN               3202550569000000520250403125019851000000ROBERTO DOMINGUEZ CAZARIN               0000000000000000000001DOMICILIACION                           00                     
020000264300100000000001000020250512                        51202505120024000002222905249350146JOSE ANTONIO GOMEZ MEZA                 3202174461000000320250326113651404700000JOSE ANTONIO GOMEZ MEZA                 0000000000000000000001DOMICILIACION                           00                     
020000265300100000000010000020250512                        51202505120020300005256786132074695YURITZY FRANCO SANTOS                   3300480560000000320250323093616078900000YURITZY FRANCO SANTOS                   0000000000000000000001DOMICILIACION                           00                     
020000266300100000000002000020250512                        51202505120024000002180902643625389MARIA ISABEL SOLIS ELENO                3203321880000000720250313132353431600000MARIA ISABEL SOLIS ELENO                0000000000000000000001DOMICILIACION                           00                     
020000267300100000000005000020250512                        51202505120024000002813902261426059AZEL RODRIGUEZ HERNANDEZ                3202131762000000520250404093843560200000AZEL RODRIGUEZ HERNANDEZ                0000000000000000000001DOMICILIACION                           00                     
020000268300100000000002000020250512                        51202505120024000002260902330910214ERIKA PALOALTO TAPIA                    3200461206000000520250403112954724500000ERIKA PALOALTO TAPIA                    0000000000000000000001DOMICILIACION                           00                     
020000269300100000000003000020250512                        51202505120024000002180701874231109CARLOS ALBERTO ALBARRAN PEREZ           6442320928000000520250329103718240900000CARLOS ALBERTO ALBARRAN PEREZ           0000000000000000000001DOMICILIACION                           00                     
020000270300100000000002500020250512                        51202505120024000002180904805593464JOSUE ALBERTO VELAZQUEZ CASTRO          3203314399000000720250310163700808300000JOSUE ALBERTO VELAZQUEZ CASTRO          0000000000000000000001DOMICILIACION                           00                     
020000271300100000000002000020250512                        51202505120024000002180904803729476DULCE ISABEL GARRIDO PARRAS             3300627839000000320250331225256304100000DULCE ISABEL GARRIDO PARRAS             0000000000000000000001DOMICILIACION                           00                     
020000272300100000000001500020250512                        51202505120020300005256782346615498ELIZABETH LEDESMA ZAMUDIO               3203030232000000320250329182443320400000ELIZABETH LEDESMA ZAMUDIO               0000000000000000000001DOMICILIACION                           00                     
020000273300100000000006000020250512                        51202505120024000002890901034547859JUAN RAMON ORTIZ MENDOZA                3203209020000000520250331132228827700000JUAN RAMON ORTIZ MENDOZA                0000000000000000000001DOMICILIACION                           00                     
020000274300100000000002000020250512                        51202505120020300005256784232425792MELINA VALDES ALANIS                    3203354636000000520250329114608253300000MELINA VALDES ALANIS                    0000000000000000000001DOMICILIACION                           00                     
020000275300100000000001000020250512                        51202505120024000002010904567454733JAVIER ANDRES BARROZO COYAZO            3300684348000000120250427221009170900000JAVIER ANDRES BARROZO COYAZO            0000000000000000000001DOMICILIACION                           00                     
020000276300100000000001000020250512                        51202505120024000002700904585051431NANCY CAROLINA CUEVAS VEGA              3202021554000000120250423081045053600000NANCY CAROLINA CUEVAS VEGA              0000000000000000000001DOMICILIACION                           00                     
020000277300100000000005000020250512                        51202505120024000002180701571367965LAURA ADRIANA ALANIS MARTINEZ           3203240717000000320250423121045395700000LAURA ADRIANA ALANIS MARTINEZ           0000000000000000000001DOMICILIACION                           00                     
020000278300100000000005000020250512                        51202505120024000002090902495962128IGNACIO VERDUZCO LARIOS                 3202956484000001720250107202150289300000IGNACIO VERDUZCO LARIOS                 0000000000000000000001DOMICILIACION                           00                     
020000279300100000000002000020250512                        51202505120024000002180904193001943KARLA DANIELA MARQUEZ GONZALEZ          3203178799000002020241218083516148400000KARLA DANIELA MARQUEZ GONZALEZ          0000000000000000000001DOMICILIACION                           00                     
020000280300100000000003000020250512                        51202505120024000002090901662228175JAVIER EVERARDO LARIOS CONTRERAS        3300953397000001520250113150204954900000JAVIER EVERARDO LARIOS CONTRERAS        0000000000000000000001DOMICILIACION                           00                     
020000281300100000000005000020250512                        51202505120020300005256783802992793ROBERTO RAMIREZ SAMANO                  3202859572000003920240717121238632900000ROBERTO RAMIREZ SAMANO                  0000000000000000000001DOMICILIACION                           00                     
020000282300100000000005000020250512                        51202505120024000002180902532902090LEVI OMAR CHAVEZ ARANDA                 3200332313000000320250407214846488700000LEVI OMAR CHAVEZ ARANDA                 0000000000000000000001DOMICILIACION                           00                     
020000283300100000000001000020250512                        51202505120020300005204166160197697CINTHIA GUADALUPE MEZA GORDILLO         3200662837000000820250320152302584700000CINTHIA GUADALUPE MEZA GORDILLO         0000000000000000000001DOMICILIACION                           00                     
020000284300100000000010000020250512                        51202505120020300005256780261806795PEDRO JUAREZ SICARDO                    3200445252000000520250406121541453100000PEDRO JUAREZ SICARDO                    0000000000000000000001DOMICILIACION                           00                     
020000285300100000000001500020250512                        51202505120020300005256784195601199DANIEL TEJEDA GARCIA                    3203327529000000720250315150914742100000DANIEL TEJEDA GARCIA                    0000000000000000000001DOMICILIACION                           00                     
020000286300100000000001000020250512                        51202505120024000002438716300462325OLIVER CHARGOY VIVALDO                  1830035136000000320250320010735949900000OLIVER CHARGOY VIVALDO                  0000000000000000000001DOMICILIACION                           00                     
020000287300100000000001500020250512                        51202505120024000002060901026133328PAOLA BLACIO GONZALEZ                   3203360259000000320250402125749839600000PAOLA BLACIO GONZALEZ                   0000000000000000000001DOMICILIACION                           00                     
020000288300100000000032000020250512                        51202505120020300005256783758711296KEVIN BALDERAS SANCHEZ                  3400875387000000320250404152113065600000KEVIN BALDERAS SANCHEZ                  0000000000000000000001DOMICILIACION                           00                     
020000289300100000000002000020250512                        51202505120024000002546700939667813YOLANDA BARRERA SALDIVAR                3203189138000000920241227194046362000000YOLANDA BARRERA SALDIVAR                0000000000000000000001DOMICILIACION                           00                     
020000290300100000000002500020250512                        51202505120024000002180701328592899BRENDA CARMONA MIRANDA                  3300127435000001020250105065033825700000BRENDA CARMONA MIRANDA                  0000000000000000000001DOMICILIACION                           00                     
020000291300100000000003000020250512                        51202505120020300005256783244567492OCTAVIO ROBLES NAVARRO                  3200637106000001620250110091204792100000OCTAVIO ROBLES NAVARRO                  0000000000000000000001DOMICILIACION                           00                     
020000292300100000000002000020250512                        51202505120024000002680903404269072AIDE CRISTINA AGUILAR CORONA            3203191771000000820250102170838990900000AIDE CRISTINA AGUILAR CORONA            0000000000000000000001DOMICILIACION                           00                     
020000293300100000000001000020250512                        51202505120024000002463904743695947JOSE ANTONIO JUAREZ BAUTISTA            3200629536000001320241003171043151000000JOSE ANTONIO JUAREZ BAUTISTA            0000000000000000000001DOMICILIACION                           00                     
020000294300100000000001500020250512                        51202505120024000002700902088931050DAVID RICARDO CORTEZ HERNANDEZ          3202999154000003120240924110034879300000DAVID RICARDO CORTEZ HERNANDEZ          0000000000000000000001DOMICILIACION                           00                     
020000295300100000000001200020250512                        51202505120024000002180904237752297VICTORIA MARIA VICTORIANO AGUILLON      3300951277000003320240830102214867000000VICTORIA MARIA VICTORIANO AGUILLON      0000000000000000000001DOMICILIACION                           00                     
020000296300100000000025000020250512                        51202505120024000002180700000157155JUAN MANUEL MUNOZ ENTRAMBASAGUAS        3202808389000003120240923125105191400000JUAN MANUEL MUNOZ ENTRAMBASAGUAS        0000000000000000000001DOMICILIACION                           00                     
020000297300100000000005000020250512                        51202505120020300005256783632423894ABRAHAM BERNARDO SALAS OLIVARES         6449147233000001520250109194648687300000ABRAHAM BERNARDO SALAS OLIVARES         0000000000000000000001DOMICILIACION                           00                     
020000298300100000000001500020250512                        51202505120024000002180904323538684ELIZABETH ONTIVEROS LOMAS               3201959190000001720250103111928296100000ELIZABETH ONTIVEROS LOMAS               0000000000000000000001DOMICILIACION                           00                     
020000299300100000000005000020250512                        51202505120024000002320702011660538JOSE ADRIAN ESTRADA CUELLAR             3203019570000001520241003153737060200000JOSE ADRIAN ESTRADA CUELLAR             0000000000000000000001DOMICILIACION                           00                     
020000300300100000000015000020250512                        51202505120024000002420904676971878AMPARO CERON CARBAJAL                   6449120866000000920250111184002438600000AMPARO CERON CARBAJAL                   0000000000000000000001DOMICILIACION                           00                     
020000301300100000000001500020250512                        51202505120024000002180903506115168CECILIA VARGAS CORTES                   3203176156000001920241216161809180100000CECILIA VARGAS CORTES                   0000000000000000000001DOMICILIACION                           00                     
020000302300100000000010000020250512                        51202505120024000002180056385838898MARISOL REYES LEZAMA                    6449043668000003320240903131113137700000MARISOL REYES LEZAMA                    0000000000000000000001DOMICILIACION                           00                     
020000303300100000000002500020250512                        51202505120024000002090902651797535NESTOR IVAN FLORES LARIOS               3202955804000002920241003104334503100000NESTOR IVAN FLORES LARIOS               0000000000000000000001DOMICILIACION                           00                     
020000304300100000000001200020250512                        51202505120020300005256784299431998KATERIN ALESHAIN VEGA GONZALEZ          3300978526000000820250128131716083200000KATERIN ALESHAIN VEGA GONZALEZ          0000000000000000000001DOMICILIACION                           00                     
020000305300100000000002500020250512                        51202505120020300005204167434791893BRENDA CARMONA MIRANDA                  3300127435000000720250126125438259300000BRENDA CARMONA MIRANDA                  0000000000000000000001DOMICILIACION                           00                     
020000306300100000000001000020250512                        51202505120024000002180701562362584ERNESTO BALTAZAR CERON                  3201423470000001320250126191112310100000ERNESTO BALTAZAR CERON                  0000000000000000000001DOMICILIACION                           00                     
020000307300100000000010000020250512                        51202505120020300005204165987658691EFRAIN GARDUNO SAAVEDRA                 3201593188000000720250127124711706100000EFRAIN GARDUNO SAAVEDRA                 0000000000000000000001DOMICILIACION                           00                     
020000308300100000000010000020250512                        51202505120024000002180702141018999TERESITA DE JESUS ROSALES ORTIZ         3202673659000000720250124143647841100000TERESITA DE JESUS ROSALES ORTIZ         0000000000000000000001DOMICILIACION                           00                     
020000309300100000000006000020250512                        51202505120020300005256784294033898FRANCISCO VARELA NIETO                  3201845436000001520250121172134780300000FRANCISCO VARELA NIETO                  0000000000000000000001DOMICILIACION                           00                     
020000310300100000000001000020250512                        51202505120024000002580905048825857JUAN JOSE CASTILLO CASTILLO             3202692220000000620250117154452173200000JUAN JOSE CASTILLO CASTILLO             0000000000000000000001DOMICILIACION                           00                     
020000311300100000000001000020250512                        51202505120020300005256786114253093BERTHA BEATRIZ AVEDOY DUQUE             3201361912000001720241227013247847600000BERTHA BEATRIZ AVEDOY DUQUE             0000000000000000000001DOMICILIACION                           00                     
020000312300100000000001000020250512                        51202505120024000002470902293545655MITZI ESLI BUCIO JACOBO                 3200593673000001920241221110041109600000MITZI ESLI BUCIO JACOBO                 0000000000000000000001DOMICILIACION                           00                     
020000313300100000000001500020250512                        51202505120024000002180904030004841MARISELA SAUCEDO PEREZ                  3203050840000003120241017110539933100000MARISELA SAUCEDO PEREZ                  0000000000000000000001DOMICILIACION                           00                     
020000314300100000000001500020250512                        51202505120024000002540904132809733ISIDRO JONATHAN TOLENTINO TEJEDA        3202193063000001520241010112641408000000ISIDRO JONATHAN TOLENTINO TEJEDA        0000000000000000000001DOMICILIACION                           00                     
020000315300100000000020000020250512                        51202505120024000002180700209265796GUILLERMO ROMAN PORTILLO GARCIA         3200397622000001320241022114133826300000GUILLERMO ROMAN PORTILLO GARCIA         0000000000000000000001DOMICILIACION                           00                     
020000316300100000000050000020250512                        51202505120024000002760403500407080RUY RAFAEL SALGADO HERNANDEZ            3200499280000000920241218101559247900000RUY RAFAEL SALGADO HERNANDEZ            0000000000000000000001DOMICILIACION                           00                     
020000317300100000000001000020250512                        51202505120024000002854901288256990JUANA DE JESUS CRUZ DEL CASTILLO        3202537221000000820250325180310969200000JUANA DE JESUS CRUZ DEL CASTILLO        0000000000000000000001DOMICILIACION                           00                     
020000318300100000000001000020250512                        51202505120020300005256784249202994DANIELA LIZET CASTILLO HERNANDEZ        3202933496000000320250311211754883000000DANIELA LIZET CASTILLO HERNANDEZ        0000000000000000000001DOMICILIACION                           00                     
020000319300100000000001500020250512                        51202505120024000002180702033567396SAMANTHA ORTIZ ALVARADO                 3203336548000000720250321125343426400000SAMANTHA ORTIZ ALVARADO                 0000000000000000000001DOMICILIACION                           00                     
020000320300100000000012000020250512                        51202505120020300005256783026657099MARTHA PATRICIA TOTO BUSTAMANTE         3202186182000000320250319103016172200000MARTHA PATRICIA TOTO BUSTAMANTE         0000000000000000000001DOMICILIACION                           00                     
020000321300100000000005000020250512                        51202505120024000002180904232445923LESLIE ADRIANA MEJIA GAMA               3203337238000000720250321135208563400000LESLIE ADRIANA MEJIA GAMA               0000000000000000000001DOMICILIACION                           00                     
020000322300100000000003000020250512                        51202505120020300005256786170297695ARELI ABIGAIL GUILLEN VAZQUEZ           3202684269000000520250321135040560300000ARELI ABIGAIL GUILLEN VAZQUEZ           0000000000000000000001DOMICILIACION                           00                     
020000323300100000000001500020250512                        51202505120024000002180700748688410MARTHA PATRICIA LOPEZ CANO GIL          3203051212000002920241017122901064500000MARTHA PATRICIA LOPEZ CANO GIL          0000000000000000000001DOMICILIACION                           00                     
020000324300100000000050000020250512                        51202505120020300005256783613800094ITZAE VALDEZ SOTO                       3202029390000002720241024181957706800000ITZAE VALDEZ SOTO                       0000000000000000000001DOMICILIACION                           00                     
020000325300100000000001000020250512                        51202505120024000002320900569040172CLAUDIA CASTRO CID DEL PRADO            3201885245000015920220118180207599200000CLAUDIA CASTRO CID DEL PRADO            0000000000000000000001DOMICILIACION                           00                     
020000326300100000000002500020250512                        51202505120024000002180700338661096ERICK ALONSO GRANADOS GARNICA           3202623898000006720231211121728588400000ERICK ALONSO GRANADOS GARNICA           0000000000000000000001DOMICILIACION                           00                     
020000327300100000000001000020250512                        51202505120020300005256783124132995RAUL MANLIO ALEMAN MARTINEZ             3201983674000015420220225205145395900000RAUL MANLIO ALEMAN MARTINEZ             0000000000000000000001DOMICILIACION                           00                     
020000328300100000000001000020250512                        51202505120024000002180701110232370SALVADOR RODRIGUEZ RAMIREZ              6442128321000012120221027161250050000000SALVADOR RODRIGUEZ RAMIREZ              0000000000000000000001DOMICILIACION                           00                     
020000329300100000000003000020250512                        51202505120024000002180477600664313MIGUEL ANGEL RAMIREZ NIETO              3201445988000018620210622154754357900000MIGUEL ANGEL RAMIREZ NIETO              0000000000000000000001DOMICILIACION                           00                     
020000330300100000000001000020250512                        51202505120024000002180700144217249HAROLD GABRIEL HERNANDEZ SALCEDO        3201313155000019520210609125822577200000HAROLD GABRIEL HERNANDEZ SALCEDO        0000000000000000000001DOMICILIACION                           00                     
020000331300100000000010000020250512                        51202505120020300005256786103867499ISRAEL ITURBE COLIN                     3200189733000009520230523123110862700000ISRAEL ITURBE COLIN                     0000000000000000000001DOMICILIACION                           00                     
020000332300100000000002000020250512                        51202505120024000002180036950978585CARLOS ALBERTO BAUTISTA MORALES         3200483826000008220230922122129944100000CARLOS ALBERTO BAUTISTA MORALES         0000000000000000000001DOMICILIACION                           00                     
